{
  "transactions": [
    {
      "hash": "0x8a9009a316d8134dc4d580c126f7f290cab268c26a3d04cfb9e1a13fd754af0d",
      "transactionType": "CALL",
      "contractName": null,
      "contractAddress": "0xf213488c5e054be9451065a92c3440dda88721b0",
      "function": "enrollRemoteRouter(uint32,bytes32)",
      "arguments": [
        "5003",
        "0x000000000000000000000000f213488c5e054be9451065a92c3440dda88721b0"
      ],
      "transaction": {
        "from": "0x1234562eb0cd65e7d08e59f9f18d7c10b5df232a",
        "to": "0xf213488c5e054be9451065a92c3440dda88721b0",
        "gas": "0x29345",
        "value": "0x0",
        "input": "0xb49c53a7000000000000000000000000000000000000000000000000000000000000138b000000000000000000000000f213488c5e054be9451065a92c3440dda88721b0",
        "nonce": "0xba4b",
        "chainId": "0x14a34"
      },
      "additionalContracts": [],
      "isFixedGasLimit": false
    }
  ],
  "receipts": [
    {
      "status": "0x1",
      "cumulativeGasUsed": "0xcf249",
      "logs": [
        {
          "address": "0xf213488c5e054be9451065a92c3440dda88721b0",
          "topics": [
            "0x97fd51fef1f80c854cbd0150c248e8b2ac4ecdc97cc05e742b5f61c9f4dc6458",
            "0x000000000000000000000000000000000000000000000000000000000000138b"
          ],
          "data": "0x000000000000000000000000f213488c5e054be9451065a92c3440dda88721b0",
          "blockHash": "0x1f8cd108fbb0965eb307bae22d582a76e5a7c8d098492eb9736064cec71ae189",
          "blockNumber": "0x22002a2",
          "blockTimestamp": "0x69536424",
          "transactionHash": "0x8a9009a316d8134dc4d580c126f7f290cab268c26a3d04cfb9e1a13fd754af0d",
          "transactionIndex": "0x3",
          "logIndex": "0x28",
          "removed": false
        }
      ],
      "logsBloom": "0x00000000000000000000000000000000000000000000000000000000000000000000000000002000000000000040000000000000000000000080000000000000000000000000000800000000000000000000000000000000000000000000000000000000000000004000000000000000000000000000000000000000000000000000000000000000000000000000000000000000000000000000000000000000008000000000000000000000000000000000000000000004000000000000000000000000000000000000000000000000000000000000000000000000000000000000000000000000000000000000000000000000000200000000200000000000",
      "type": "0x2",
      "transactionHash": "0x8a9009a316d8134dc4d580c126f7f290cab268c26a3d04cfb9e1a13fd754af0d",
      "transactionIndex": "0x3",
      "blockHash": "0x1f8cd108fbb0965eb307bae22d582a76e5a7c8d098492eb9736064cec71ae189",
      "blockNumber": "0x22002a2",
      "gasUsed": "0x1c2c9",
      "effectiveGasPrice": "0x124f80",
      "blobGasUsed": "0x79e0",
      "from": "0x1234562eb0cd65e7d08e59f9f18d7c10b5df232a",
      "to": "0xf213488c5e054be9451065a92c3440dda88721b0",
      "contractAddress": null,
      "daFootprintGasScalar": "0x138",
      "l1BaseFeeScalar": "0x44d",
      "l1BlobBaseFee": "0x1",
      "l1BlobBaseFeeScalar": "0xa118b",
      "l1Fee": "0x57",
      "l1GasPrice": "0xc",
      "l1GasUsed": "0x640"
    }
  ],
  "libraries": [],
  "pending": [],
  "returns": {},
  "timestamp": 1767072805695,
  "chain": 84532,
  "commit": "2c35a07"
}