{
  "transactions": [
    {
      "hash": "0x5249da1cf95ded659669351734cf9ef83be1d306760f3fc6f0b00ec8cf1c58dc",
      "transactionType": "CALL",
      "contractName": null,
      "contractAddress": "0x61e8390eb1493112b4480f5024500d92779cf886",
      "function": "enrollRemoteRouter(uint32,bytes32)",
      "arguments": [
        "5003",
        "0x00000000000000000000000061e8390eb1493112b4480f5024500d92779cf886"
      ],
      "transaction": {
        "from": "0x1234562eb0cd65e7d08e59f9f18d7c10b5df232a",
        "to": "0x61e8390eb1493112b4480f5024500d92779cf886",
        "gas": "0x29345",
        "value": "0x0",
        "input": "0xb49c53a7000000000000000000000000000000000000000000000000000000000000138b00000000000000000000000061e8390eb1493112b4480f5024500d92779cf886",
        "nonce": "0xba4e",
        "chainId": "0x14a34"
      },
      "additionalContracts": [],
      "isFixedGasLimit": false
    }
  ],
  "receipts": [
    {
      "status": "0x1",
      "cumulativeGasUsed": "0x86f229",
      "logs": [
        {
          "address": "0x61e8390eb1493112b4480f5024500d92779cf886",
          "topics": [
            "0x97fd51fef1f80c854cbd0150c248e8b2ac4ecdc97cc05e742b5f61c9f4dc6458",
            "0x000000000000000000000000000000000000000000000000000000000000138b"
          ],
          "data": "0x00000000000000000000000061e8390eb1493112b4480f5024500d92779cf886",
          "blockHash": "0x079ad3c03277fba5bce5b7f591d87f5f3b2ae05d04d56be74a1ef7f929975642",
          "blockNumber": "0x22002ec",
          "blockTimestamp": "0x695364b8",
          "transactionHash": "0x5249da1cf95ded659669351734cf9ef83be1d306760f3fc6f0b00ec8cf1c58dc",
          "transactionIndex": "0x11",
          "logIndex": "0x15b",
          "removed": false
        }
      ],
      "logsBloom": "0x00000000000000000000000000000000000000000000000000000000000000000000000000002000000000000040000000000000200000000080000000000000000000000000000800000000000000000000000000000000000000000000000000000000000000000000000000000000000000008000000000000000000000000000000000000000000000000000000000000000000000000000000000000000000000010000000000000000000000000000000000000004000000000000000000000000000000000000000000000000000000000000000000000000000000000000000000000000000000000000000000000000000000000000200000000000",
      "type": "0x2",
      "transactionHash": "0x5249da1cf95ded659669351734cf9ef83be1d306760f3fc6f0b00ec8cf1c58dc",
      "transactionIndex": "0x11",
      "blockHash": "0x079ad3c03277fba5bce5b7f591d87f5f3b2ae05d04d56be74a1ef7f929975642",
      "blockNumber": "0x22002ec",
      "gasUsed": "0x1c2c9",
      "effectiveGasPrice": "0x124f80",
      "blobGasUsed": "0x79e0",
      "from": "0x1234562eb0cd65e7d08e59f9f18d7c10b5df232a",
      "to": "0x61e8390eb1493112b4480f5024500d92779cf886",
      "contractAddress": null,
      "daFootprintGasScalar": "0x138",
      "l1BaseFeeScalar": "0x44d",
      "l1BlobBaseFee": "0x1",
      "l1BlobBaseFeeScalar": "0xa118b",
      "l1Fee": "0x55",
      "l1GasPrice": "0xb",
      "l1GasUsed": "0x640"
    }
  ],
  "libraries": [],
  "pending": [],
  "returns": {},
  "timestamp": 1767072952912,
  "chain": 84532,
  "commit": "2c35a07"
}