{
  "transactions": [
    {
      "hash": "0xd47702981fa2c3c04f0bba3d2962e2d34873d536be19835b0b4ba1bad78528d4",
      "transactionType": "CALL",
      "contractName": null,
      "contractAddress": "0x26c59b5f149e48c235c031e603ec19869eeb4f65",
      "function": "enrollRemoteRouter(uint32,bytes32)",
      "arguments": [
        "5003",
        "0x00000000000000000000000026c59b5f149e48c235c031e603ec19869eeb4f65"
      ],
      "transaction": {
        "from": "0x1234562eb0cd65e7d08e59f9f18d7c10b5df232a",
        "to": "0x26c59b5f149e48c235c031e603ec19869eeb4f65",
        "gas": "0x29345",
        "value": "0x0",
        "input": "0xb49c53a7000000000000000000000000000000000000000000000000000000000000138b00000000000000000000000026c59b5f149e48c235c031e603ec19869eeb4f65",
        "nonce": "0xba4c",
        "chainId": "0x14a34"
      },
      "additionalContracts": [],
      "isFixedGasLimit": false
    }
  ],
  "receipts": [
    {
      "status": "0x1",
      "cumulativeGasUsed": "0x6fbb06",
      "logs": [
        {
          "address": "0x26c59b5f149e48c235c031e603ec19869eeb4f65",
          "topics": [
            "0x97fd51fef1f80c854cbd0150c248e8b2ac4ecdc97cc05e742b5f61c9f4dc6458",
            "0x000000000000000000000000000000000000000000000000000000000000138b"
          ],
          "data": "0x00000000000000000000000026c59b5f149e48c235c031e603ec19869eeb4f65",
          "blockHash": "0xc80e9e5da8b85d290bd9fedb2bcb2f9e03417356aaf57a1e449d2f775743eed9",
          "blockNumber": "0x22002bb",
          "blockTimestamp": "0x69536456",
          "transactionHash": "0xd47702981fa2c3c04f0bba3d2962e2d34873d536be19835b0b4ba1bad78528d4",
          "transactionIndex": "0x6",
          "logIndex": "0x10e",
          "removed": false
        }
      ],
      "logsBloom": "0x00000000000000100000000000000000000000000000000000000000000000000000000000002000000000000040000000000000000000000080000000000000000000000000000800000000000000000000000000000000000000000000000000000000000000000020000000000000000000000002000000000000000000000000000000000000000000000000000000000000000000000000000000000000000000000000000000000000000000000000000000000004000000000000000000000000000000000000000000000000000000000000000000000000000000000000000000000000000000000000000000000000000000000000200000000000",
      "type": "0x2",
      "transactionHash": "0xd47702981fa2c3c04f0bba3d2962e2d34873d536be19835b0b4ba1bad78528d4",
      "transactionIndex": "0x6",
      "blockHash": "0xc80e9e5da8b85d290bd9fedb2bcb2f9e03417356aaf57a1e449d2f775743eed9",
      "blockNumber": "0x22002bb",
      "gasUsed": "0x1c2c9",
      "effectiveGasPrice": "0x124f80",
      "blobGasUsed": "0x79e0",
      "from": "0x1234562eb0cd65e7d08e59f9f18d7c10b5df232a",
      "to": "0x26c59b5f149e48c235c031e603ec19869eeb4f65",
      "contractAddress": null,
      "daFootprintGasScalar": "0x138",
      "l1BaseFeeScalar": "0x44d",
      "l1BlobBaseFee": "0x1",
      "l1BlobBaseFeeScalar": "0xa118b",
      "l1Fee": "0x57",
      "l1GasPrice": "0xc",
      "l1GasUsed": "0x640"
    }
  ],
  "libraries": [],
  "pending": [],
  "returns": {},
  "timestamp": 1767072854556,
  "chain": 84532,
  "commit": "2c35a07"
}