{
  "transactions": [
    {
      "hash": "0xc29de651a07a87fd60a15e82d1c4a99c7171d24d8d68c0bac07f8b5ecc637b14",
      "transactionType": "CALL",
      "contractName": null,
      "contractAddress": "0x6354cb6420cc6854ad874c123b3a084d8601e6a4",
      "function": "enrollRemoteRouter(uint32,bytes32)",
      "arguments": [
        "5003",
        "0x0000000000000000000000006354cb6420cc6854ad874c123b3a084d8601e6a4"
      ],
      "transaction": {
        "from": "0x1234562eb0cd65e7d08e59f9f18d7c10b5df232a",
        "to": "0x6354cb6420cc6854ad874c123b3a084d8601e6a4",
        "gas": "0x29345",
        "value": "0x0",
        "input": "0xb49c53a7000000000000000000000000000000000000000000000000000000000000138b0000000000000000000000006354cb6420cc6854ad874c123b3a084d8601e6a4",
        "nonce": "0xba48",
        "chainId": "0x14a34"
      },
      "additionalContracts": [],
      "isFixedGasLimit": false
    }
  ],
  "receipts": [
    {
      "status": "0x1",
      "cumulativeGasUsed": "0x53a7bb",
      "logs": [
        {
          "address": "0x6354cb6420cc6854ad874c123b3a084d8601e6a4",
          "topics": [
            "0x97fd51fef1f80c854cbd0150c248e8b2ac4ecdc97cc05e742b5f61c9f4dc6458",
            "0x000000000000000000000000000000000000000000000000000000000000138b"
          ],
          "data": "0x0000000000000000000000006354cb6420cc6854ad874c123b3a084d8601e6a4",
          "blockHash": "0xd676a1efb41cf6a1bfe9d9097fda7de137cf1a626089d5bc410d2a07b401791b",
          "blockNumber": "0x2200255",
          "blockTimestamp": "0x6953638a",
          "transactionHash": "0xc29de651a07a87fd60a15e82d1c4a99c7171d24d8d68c0bac07f8b5ecc637b14",
          "transactionIndex": "0x10",
          "logIndex": "0xfe",
          "removed": false
        }
      ],
      "logsBloom": "0x00000000000000000000000000000000000000000000000000000000000000000000000000002000000000000040000000000000000000000080000000000000000000000000000800000000000000002000000000000000000000000000000000000000000000000000000000000000040400000000000000000000000000000000000000000000000000000000000000000000000000000000000000000000000000000000000000000000000000000000000000000004000000000000000000000000000000000000000000000000000000000000000000000000000000000000000000000000000000000000000000000000000000000000200000000000",
      "type": "0x2",
      "transactionHash": "0xc29de651a07a87fd60a15e82d1c4a99c7171d24d8d68c0bac07f8b5ecc637b14",
      "transactionIndex": "0x10",
      "blockHash": "0xd676a1efb41cf6a1bfe9d9097fda7de137cf1a626089d5bc410d2a07b401791b",
      "blockNumber": "0x2200255",
      "gasUsed": "0x1c2c9",
      "effectiveGasPrice": "0x124f80",
      "blobGasUsed": "0x79e0",
      "from": "0x1234562eb0cd65e7d08e59f9f18d7c10b5df232a",
      "to": "0x6354cb6420cc6854ad874c123b3a084d8601e6a4",
      "contractAddress": null,
      "daFootprintGasScalar": "0x138",
      "l1BaseFeeScalar": "0x44d",
      "l1BlobBaseFee": "0x1",
      "l1BlobBaseFeeScalar": "0xa118b",
      "l1Fee": "0x55",
      "l1GasPrice": "0xb",
      "l1GasUsed": "0x640"
    }
  ],
  "libraries": [],
  "pending": [],
  "returns": {},
  "timestamp": 1767072650941,
  "chain": 84532,
  "commit": "2c35a07"
}