{
  "transactions": [
    {
      "hash": "0x73e6a119f2bbab2a55faa7fe7f2125823ba9e5da3070d30ef533589b33b55a1c",
      "transactionType": "CALL",
      "contractName": null,
      "contractAddress": "0x96cc29dc64e66cfc0df32ae9e02925897de96b3f",
      "function": "enrollRemoteRouter(uint32,bytes32)",
      "arguments": [
        "5003",
        "0x00000000000000000000000096cc29dc64e66cfc0df32ae9e02925897de96b3f"
      ],
      "transaction": {
        "from": "0x1234562eb0cd65e7d08e59f9f18d7c10b5df232a",
        "to": "0x96cc29dc64e66cfc0df32ae9e02925897de96b3f",
        "gas": "0x29345",
        "value": "0x0",
        "input": "0xb49c53a7000000000000000000000000000000000000000000000000000000000000138b00000000000000000000000096cc29dc64e66cfc0df32ae9e02925897de96b3f",
        "nonce": "0xba4a",
        "chainId": "0x14a34"
      },
      "additionalContracts": [],
      "isFixedGasLimit": false
    }
  ],
  "receipts": [
    {
      "status": "0x1",
      "cumulativeGasUsed": "0x1a425a",
      "logs": [
        {
          "address": "0x96cc29dc64e66cfc0df32ae9e02925897de96b3f",
          "topics": [
            "0x97fd51fef1f80c854cbd0150c248e8b2ac4ecdc97cc05e742b5f61c9f4dc6458",
            "0x000000000000000000000000000000000000000000000000000000000000138b"
          ],
          "data": "0x00000000000000000000000096cc29dc64e66cfc0df32ae9e02925897de96b3f",
          "blockHash": "0x27f3a62a903b80b7a361b76ec7b50a7e32b0eb87e2d32bba34e4d66ba52b66ee",
          "blockNumber": "0x2200288",
          "blockTimestamp": "0x695363f0",
          "transactionHash": "0x73e6a119f2bbab2a55faa7fe7f2125823ba9e5da3070d30ef533589b33b55a1c",
          "transactionIndex": "0xe",
          "logIndex": "0x2f",
          "removed": false
        }
      ],
      "logsBloom": "0x00000000000000000000000000000000000000000000080000000000000000000000000000002040000000000040000000000000000000000080000000000000000000000000000800000000000000000000000000000000000000000000000000000000000080000000000000000000000000000000000000000000000000000000000000000000000000000000000000000000000000000000000000000000000000000000000000000000000000000000000000000004000000000000000000000000000000000000000000000000000000000000000000000000000000000000000000000000000000000000000000000000000000000000200000000000",
      "type": "0x2",
      "transactionHash": "0x73e6a119f2bbab2a55faa7fe7f2125823ba9e5da3070d30ef533589b33b55a1c",
      "transactionIndex": "0xe",
      "blockHash": "0x27f3a62a903b80b7a361b76ec7b50a7e32b0eb87e2d32bba34e4d66ba52b66ee",
      "blockNumber": "0x2200288",
      "gasUsed": "0x1c2c9",
      "effectiveGasPrice": "0x124f80",
      "blobGasUsed": "0x79e0",
      "from": "0x1234562eb0cd65e7d08e59f9f18d7c10b5df232a",
      "to": "0x96cc29dc64e66cfc0df32ae9e02925897de96b3f",
      "contractAddress": null,
      "daFootprintGasScalar": "0x138",
      "l1BaseFeeScalar": "0x44d",
      "l1BlobBaseFee": "0x1",
      "l1BlobBaseFeeScalar": "0xa118b",
      "l1Fee": "0x57",
      "l1GasPrice": "0xc",
      "l1GasUsed": "0x640"
    }
  ],
  "libraries": [],
  "pending": [],
  "returns": {},
  "timestamp": 1767072752780,
  "chain": 84532,
  "commit": "2c35a07"
}