{
  "transactions": [
    {
      "hash": "0xd58418bb75cce5d120f3b735a8a9c772bcd2e7de490ceba0c879362a4e3ed2b7",
      "transactionType": "CALL",
      "contractName": null,
      "contractAddress": "0xd498dc49b505bd55771e9a1186eb99ef5282e598",
      "function": "enrollRemoteRouter(uint32,bytes32)",
      "arguments": [
        "5003",
        "0x000000000000000000000000d498dc49b505bd55771e9a1186eb99ef5282e598"
      ],
      "transaction": {
        "from": "0x1234562eb0cd65e7d08e59f9f18d7c10b5df232a",
        "to": "0xd498dc49b505bd55771e9a1186eb99ef5282e598",
        "gas": "0x29345",
        "value": "0x0",
        "input": "0xb49c53a7000000000000000000000000000000000000000000000000000000000000138b000000000000000000000000d498dc49b505bd55771e9a1186eb99ef5282e598",
        "nonce": "0xba49",
        "chainId": "0x14a34"
      },
      "additionalContracts": [],
      "isFixedGasLimit": false
    }
  ],
  "receipts": [
    {
      "status": "0x1",
      "cumulativeGasUsed": "0x2def3",
      "logs": [
        {
          "address": "0xd498dc49b505bd55771e9a1186eb99ef5282e598",
          "topics": [
            "0x97fd51fef1f80c854cbd0150c248e8b2ac4ecdc97cc05e742b5f61c9f4dc6458",
            "0x000000000000000000000000000000000000000000000000000000000000138b"
          ],
          "data": "0x000000000000000000000000d498dc49b505bd55771e9a1186eb99ef5282e598",
          "blockHash": "0xcdd9861dbe7453c5146e9b5104c77db713f24d89a3e299d0a38bdb712c47fb35",
          "blockNumber": "0x220026e",
          "blockTimestamp": "0x695363bc",
          "transactionHash": "0xd58418bb75cce5d120f3b735a8a9c772bcd2e7de490ceba0c879362a4e3ed2b7",
          "transactionIndex": "0x2",
          "logIndex": "0x0",
          "removed": false
        }
      ],
      "logsBloom": "0x00000000000000000000000000000000000000000000000000000000000000000000000000002000000000000040000000000000000000200080000000000000000000000000000800000000000000000002000000000000000000000000000000000000000000000000000000000000000000000000000000000000000000000000000000000000000000000000000000000000000000000000000000000000000000000000000000000000000000000000000000000004000000000000000000000000000000000000000000000000000000000000000000000000000000000000000000000000000000000000000000000000000000000000200000800000",
      "type": "0x2",
      "transactionHash": "0xd58418bb75cce5d120f3b735a8a9c772bcd2e7de490ceba0c879362a4e3ed2b7",
      "transactionIndex": "0x2",
      "blockHash": "0xcdd9861dbe7453c5146e9b5104c77db713f24d89a3e299d0a38bdb712c47fb35",
      "blockNumber": "0x220026e",
      "gasUsed": "0x1c2c9",
      "effectiveGasPrice": "0x124f80",
      "blobGasUsed": "0x79e0",
      "from": "0x1234562eb0cd65e7d08e59f9f18d7c10b5df232a",
      "to": "0xd498dc49b505bd55771e9a1186eb99ef5282e598",
      "contractAddress": null,
      "daFootprintGasScalar": "0x138",
      "l1BaseFeeScalar": "0x44d",
      "l1BlobBaseFee": "0x1",
      "l1BlobBaseFeeScalar": "0xa118b",
      "l1Fee": "0x57",
      "l1GasPrice": "0xc",
      "l1GasUsed": "0x640"
    }
  ],
  "libraries": [],
  "pending": [],
  "returns": {},
  "timestamp": 1767072700303,
  "chain": 84532,
  "commit": "2c35a07"
}