{
  "transactions": [
    {
      "hash": "0xeeaaa2f6f1ad2b3bd16f3f8a8439e7d94d97b0f0404262ac5a659577cd464551",
      "transactionType": "CALL",
      "contractName": null,
      "contractAddress": "0xb288ba5b5b80dd0fd83541ef2e5922f71121fa13",
      "function": "enrollRemoteRouter(uint32,bytes32)",
      "arguments": [
        "5003",
        "0x000000000000000000000000b288ba5b5b80dd0fd83541ef2e5922f71121fa13"
      ],
      "transaction": {
        "from": "0x1234562eb0cd65e7d08e59f9f18d7c10b5df232a",
        "to": "0xb288ba5b5b80dd0fd83541ef2e5922f71121fa13",
        "gas": "0x29038",
        "value": "0x0",
        "input": "0xb49c53a7000000000000000000000000000000000000000000000000000000000000138b000000000000000000000000b288ba5b5b80dd0fd83541ef2e5922f71121fa13",
        "nonce": "0xbde8",
        "chainId": "0x14a34"
      },
      "additionalContracts": [],
      "isFixedGasLimit": false
    },
    {
      "hash": "0xaaf5075d77a2d8f788d01a33aba18858022d1b1816f08ffff9bfbb471f9632ef",
      "transactionType": "CALL",
      "contractName": null,
      "contractAddress": "0xc4a53c466cfb62aeced03008b0162baaf36e0b03",
      "function": "enrollRemoteRouter(uint32,bytes32)",
      "arguments": [
        "5003",
        "0x000000000000000000000000c4a53c466cfb62aeced03008b0162baaf36e0b03"
      ],
      "transaction": {
        "from": "0x1234562eb0cd65e7d08e59f9f18d7c10b5df232a",
        "to": "0xc4a53c466cfb62aeced03008b0162baaf36e0b03",
        "gas": "0x29038",
        "value": "0x0",
        "input": "0xb49c53a7000000000000000000000000000000000000000000000000000000000000138b000000000000000000000000c4a53c466cfb62aeced03008b0162baaf36e0b03",
        "nonce": "0xbde9",
        "chainId": "0x14a34"
      },
      "additionalContracts": [],
      "isFixedGasLimit": false
    },
    {
      "hash": "0xa76fc3185d6dbb34f08ced243905cd5ec21444aef49f9b970e9922bc5109e449",
      "transactionType": "CALL",
      "contractName": null,
      "contractAddress": "0x33c6f26da09502e6540043f030ae1f87f109cc99",
      "function": "enrollRemoteRouter(uint32,bytes32)",
      "arguments": [
        "5003",
        "0x00000000000000000000000033c6f26da09502e6540043f030ae1f87f109cc99"
      ],
      "transaction": {
        "from": "0x1234562eb0cd65e7d08e59f9f18d7c10b5df232a",
        "to": "0x33c6f26da09502e6540043f030ae1f87f109cc99",
        "gas": "0x26bb2",
        "value": "0x0",
        "input": "0xb49c53a7000000000000000000000000000000000000000000000000000000000000138b00000000000000000000000033c6f26da09502e6540043f030ae1f87f109cc99",
        "nonce": "0xbdea",
        "chainId": "0x14a34"
      },
      "additionalContracts": [],
      "isFixedGasLimit": false
    },
    {
      "hash": "0x64a303f5e935f578fca7fba6dc4ae114528c07f9b366e71bbe0d4cadc3283fe9",
      "transactionType": "CALL",
      "contractName": null,
      "contractAddress": "0x7cb382ce1aa40fa9f9a59a632090c05dc28cae7b",
      "function": "enrollRemoteRouter(uint32,bytes32)",
      "arguments": [
        "5003",
        "0x0000000000000000000000007cb382ce1aa40fa9f9a59a632090c05dc28cae7b"
      ],
      "transaction": {
        "from": "0x1234562eb0cd65e7d08e59f9f18d7c10b5df232a",
        "to": "0x7cb382ce1aa40fa9f9a59a632090c05dc28cae7b",
        "gas": "0x29038",
        "value": "0x0",
        "input": "0xb49c53a7000000000000000000000000000000000000000000000000000000000000138b0000000000000000000000007cb382ce1aa40fa9f9a59a632090c05dc28cae7b",
        "nonce": "0xbdeb",
        "chainId": "0x14a34"
      },
      "additionalContracts": [],
      "isFixedGasLimit": false
    },
    {
      "hash": "0x8c9ad837fdd23f23bb8ee0801acc07c68483305059730eef7d5776e1950c4fcd",
      "transactionType": "CALL",
      "contractName": null,
      "contractAddress": "0x70db6efb75c898ad1e194fda2b8c6e73dbc944d6",
      "function": "enrollRemoteRouter(uint32,bytes32)",
      "arguments": [
        "5003",
        "0x00000000000000000000000070db6efb75c898ad1e194fda2b8c6e73dbc944d6"
      ],
      "transaction": {
        "from": "0x1234562eb0cd65e7d08e59f9f18d7c10b5df232a",
        "to": "0x70db6efb75c898ad1e194fda2b8c6e73dbc944d6",
        "gas": "0x29038",
        "value": "0x0",
        "input": "0xb49c53a7000000000000000000000000000000000000000000000000000000000000138b00000000000000000000000070db6efb75c898ad1e194fda2b8c6e73dbc944d6",
        "nonce": "0xbdec",
        "chainId": "0x14a34"
      },
      "additionalContracts": [],
      "isFixedGasLimit": false
    },
    {
      "hash": "0x5842bc32279f318ed0bedf1dfc03c9be191477c0dae779807cb7f343def55d03",
      "transactionType": "CALL",
      "contractName": null,
      "contractAddress": "0xee589fbf85128aba6f42696db2f28ea9ebdde173",
      "function": "enrollRemoteRouter(uint32,bytes32)",
      "arguments": [
        "5003",
        "0x000000000000000000000000ee589fbf85128aba6f42696db2f28ea9ebdde173"
      ],
      "transaction": {
        "from": "0x1234562eb0cd65e7d08e59f9f18d7c10b5df232a",
        "to": "0xee589fbf85128aba6f42696db2f28ea9ebdde173",
        "gas": "0x29038",
        "value": "0x0",
        "input": "0xb49c53a7000000000000000000000000000000000000000000000000000000000000138b000000000000000000000000ee589fbf85128aba6f42696db2f28ea9ebdde173",
        "nonce": "0xbded",
        "chainId": "0x14a34"
      },
      "additionalContracts": [],
      "isFixedGasLimit": false
    },
    {
      "hash": "0xde19b3c29e1d4551b1d4395d2fa5ee165c34533c66bd34be94ef102c2add057f",
      "transactionType": "CALL",
      "contractName": null,
      "contractAddress": "0x2c036be74942c597e4d81d7050008ddc11becceb",
      "function": "enrollRemoteRouter(uint32,bytes32)",
      "arguments": [
        "5003",
        "0x0000000000000000000000002c036be74942c597e4d81d7050008ddc11becceb"
      ],
      "transaction": {
        "from": "0x1234562eb0cd65e7d08e59f9f18d7c10b5df232a",
        "to": "0x2c036be74942c597e4d81d7050008ddc11becceb",
        "gas": "0x26bb2",
        "value": "0x0",
        "input": "0xb49c53a7000000000000000000000000000000000000000000000000000000000000138b0000000000000000000000002c036be74942c597e4d81d7050008ddc11becceb",
        "nonce": "0xbdee",
        "chainId": "0x14a34"
      },
      "additionalContracts": [],
      "isFixedGasLimit": false
    },
    {
      "hash": "0x205d088b331daa313bc4a450a89814ebf9a6405afcfb422a00955cb20181ae51",
      "transactionType": "CALL",
      "contractName": null,
      "contractAddress": "0x90cdcbf4c4bc78dc440252211efd744d0a4dc4a1",
      "function": "enrollRemoteRouter(uint32,bytes32)",
      "arguments": [
        "5003",
        "0x00000000000000000000000090cdcbf4c4bc78dc440252211efd744d0a4dc4a1"
      ],
      "transaction": {
        "from": "0x1234562eb0cd65e7d08e59f9f18d7c10b5df232a",
        "to": "0x90cdcbf4c4bc78dc440252211efd744d0a4dc4a1",
        "gas": "0x29038",
        "value": "0x0",
        "input": "0xb49c53a7000000000000000000000000000000000000000000000000000000000000138b00000000000000000000000090cdcbf4c4bc78dc440252211efd744d0a4dc4a1",
        "nonce": "0xbdef",
        "chainId": "0x14a34"
      },
      "additionalContracts": [],
      "isFixedGasLimit": false
    },
    {
      "hash": "0x7281b1fa3d9f339a9090b3c7a60473d04170432fc326a6e3cfe614d845f0a916",
      "transactionType": "CALL",
      "contractName": null,
      "contractAddress": "0xced6ceb47301f268d57ff07879df45fda80e6974",
      "function": "enrollRemoteRouter(uint32,bytes32)",
      "arguments": [
        "5003",
        "0x000000000000000000000000ced6ceb47301f268d57ff07879df45fda80e6974"
      ],
      "transaction": {
        "from": "0x1234562eb0cd65e7d08e59f9f18d7c10b5df232a",
        "to": "0xced6ceb47301f268d57ff07879df45fda80e6974",
        "gas": "0x29038",
        "value": "0x0",
        "input": "0xb49c53a7000000000000000000000000000000000000000000000000000000000000138b000000000000000000000000ced6ceb47301f268d57ff07879df45fda80e6974",
        "nonce": "0xbdf0",
        "chainId": "0x14a34"
      },
      "additionalContracts": [],
      "isFixedGasLimit": false
    },
    {
      "hash": "0x5c8e652eb758e5f6fc8b43e3471efc8cec7dcb2951db9b3b197d687d2620a733",
      "transactionType": "CALL",
      "contractName": null,
      "contractAddress": "0x782ba48189af93a0cf42766058de83291f384bf3",
      "function": "enrollRemoteRouter(uint32,bytes32)",
      "arguments": [
        "5003",
        "0x000000000000000000000000782ba48189af93a0cf42766058de83291f384bf3"
      ],
      "transaction": {
        "from": "0x1234562eb0cd65e7d08e59f9f18d7c10b5df232a",
        "to": "0x782ba48189af93a0cf42766058de83291f384bf3",
        "gas": "0x29038",
        "value": "0x0",
        "input": "0xb49c53a7000000000000000000000000000000000000000000000000000000000000138b000000000000000000000000782ba48189af93a0cf42766058de83291f384bf3",
        "nonce": "0xbdf1",
        "chainId": "0x14a34"
      },
      "additionalContracts": [],
      "isFixedGasLimit": false
    }
  ],
  "receipts": [
    {
      "status": "0x1",
      "cumulativeGasUsed": "0x2b8ba5",
      "logs": [
        {
          "address": "0xb288ba5b5b80dd0fd83541ef2e5922f71121fa13",
          "topics": [
            "0x97fd51fef1f80c854cbd0150c248e8b2ac4ecdc97cc05e742b5f61c9f4dc6458",
            "0x000000000000000000000000000000000000000000000000000000000000138b"
          ],
          "data": "0x000000000000000000000000b288ba5b5b80dd0fd83541ef2e5922f71121fa13",
          "blockHash": "0x7fbc3395a556f1d7c748fd23a58931f94a08e86ffec2f2b3e0fa446c7f4c14f3",
          "blockNumber": "0x220cf8a",
          "blockTimestamp": "0x6954fdf4",
          "transactionHash": "0x5c8e652eb758e5f6fc8b43e3471efc8cec7dcb2951db9b3b197d687d2620a733",
          "transactionIndex": "0x8",
          "logIndex": "0x4a",
          "removed": false
        }
      ],
      "logsBloom": "0x00000000000000000000000000000000000000000000000000000000000000000000000000002000000000000040000000000000000000000080000000000000000000000000000800000000200000000000000000000000000000000000000000000000000000000000000000000000000000000000000000000000000000000000000000000000000000000000000000000000000000000000000000000800000000000000000000000000000000000000000000000004100000000000000000000000000000000000000000000000000000000000000000000000000000000000000000000000000000000000000000000000000000000000200000000000",
      "type": "0x2",
      "transactionHash": "0x5c8e652eb758e5f6fc8b43e3471efc8cec7dcb2951db9b3b197d687d2620a733",
      "transactionIndex": "0x8",
      "blockHash": "0x7fbc3395a556f1d7c748fd23a58931f94a08e86ffec2f2b3e0fa446c7f4c14f3",
      "blockNumber": "0x220cf8a",
      "gasUsed": "0x1c0b3",
      "effectiveGasPrice": "0x124f80",
      "blobGasUsed": "0x79e0",
      "from": "0x1234562eb0cd65e7d08e59f9f18d7c10b5df232a",
      "to": "0xb288ba5b5b80dd0fd83541ef2e5922f71121fa13",
      "contractAddress": null,
      "daFootprintGasScalar": "0x138",
      "l1BaseFeeScalar": "0x44d",
      "l1BlobBaseFee": "0x1",
      "l1BlobBaseFeeScalar": "0xa118b",
      "l1Fee": "0x5e",
      "l1GasPrice": "0x10",
      "l1GasUsed": "0x640"
    },
    {
      "status": "0x1",
      "cumulativeGasUsed": "0x2d4c58",
      "logs": [
        {
          "address": "0xc4a53c466cfb62aeced03008b0162baaf36e0b03",
          "topics": [
            "0x97fd51fef1f80c854cbd0150c248e8b2ac4ecdc97cc05e742b5f61c9f4dc6458",
            "0x000000000000000000000000000000000000000000000000000000000000138b"
          ],
          "data": "0x000000000000000000000000c4a53c466cfb62aeced03008b0162baaf36e0b03",
          "blockHash": "0x7fbc3395a556f1d7c748fd23a58931f94a08e86ffec2f2b3e0fa446c7f4c14f3",
          "blockNumber": "0x220cf8a",
          "blockTimestamp": "0x6954fdf4",
          "transactionHash": "0x8c9ad837fdd23f23bb8ee0801acc07c68483305059730eef7d5776e1950c4fcd",
          "transactionIndex": "0x9",
          "logIndex": "0x4b",
          "removed": false
        }
      ],
      "logsBloom": "0x00000000000000000000000000000000000000000000000000000000000000000000000000002000000000000040000000000000000000000080000000000000000000000000000800000000000000000000000000000000000000000000000000000000000000000000000000000000000000000000000000200000000000000000000000000000000000000000001000000000000000000000000000000000000000000000000000000000000000000000000000000004000000000000000000000000000000000000000000000000000000000000000000000000000000000000000000000000000000000001000000000000000000000000200000000000",
      "type": "0x2",
      "transactionHash": "0x8c9ad837fdd23f23bb8ee0801acc07c68483305059730eef7d5776e1950c4fcd",
      "transactionIndex": "0x9",
      "blockHash": "0x7fbc3395a556f1d7c748fd23a58931f94a08e86ffec2f2b3e0fa446c7f4c14f3",
      "blockNumber": "0x220cf8a",
      "gasUsed": "0x1c0b3",
      "effectiveGasPrice": "0x124f80",
      "blobGasUsed": "0x79e0",
      "from": "0x1234562eb0cd65e7d08e59f9f18d7c10b5df232a",
      "to": "0xc4a53c466cfb62aeced03008b0162baaf36e0b03",
      "contractAddress": null,
      "daFootprintGasScalar": "0x138",
      "l1BaseFeeScalar": "0x44d",
      "l1BlobBaseFee": "0x1",
      "l1BlobBaseFeeScalar": "0xa118b",
      "l1Fee": "0x5e",
      "l1GasPrice": "0x10",
      "l1GasUsed": "0x640"
    },
    {
      "status": "0x1",
      "cumulativeGasUsed": "0x2f0cff",
      "logs": [
        {
          "address": "0x33c6f26da09502e6540043f030ae1f87f109cc99",
          "topics": [
            "0x97fd51fef1f80c854cbd0150c248e8b2ac4ecdc97cc05e742b5f61c9f4dc6458",
            "0x000000000000000000000000000000000000000000000000000000000000138b"
          ],
          "data": "0x00000000000000000000000033c6f26da09502e6540043f030ae1f87f109cc99",
          "blockHash": "0x7fbc3395a556f1d7c748fd23a58931f94a08e86ffec2f2b3e0fa446c7f4c14f3",
          "blockNumber": "0x220cf8a",
          "blockTimestamp": "0x6954fdf4",
          "transactionHash": "0x205d088b331daa313bc4a450a89814ebf9a6405afcfb422a00955cb20181ae51",
          "transactionIndex": "0xa",
          "logIndex": "0x4c",
          "removed": false
        }
      ],
      "logsBloom": "0x00000000000000000000000000000000000000000000000000000000000000000000000000002000000000000040000000000000000000000080000000000000000000000000000800000000000000000000000000000000000000000000000000000000000000000000000000000000000000000000000000000000000000000000000000000000000000000000000000000000000000000000000000000000000000000000000040000000000000000000000000000004000000000000000000000000000000080000000000000000000000000000000000000000001000000000000000000000000000000000000000000000000000000000200000000000",
      "type": "0x2",
      "transactionHash": "0x205d088b331daa313bc4a450a89814ebf9a6405afcfb422a00955cb20181ae51",
      "transactionIndex": "0xa",
      "blockHash": "0x7fbc3395a556f1d7c748fd23a58931f94a08e86ffec2f2b3e0fa446c7f4c14f3",
      "blockNumber": "0x220cf8a",
      "gasUsed": "0x1c0a7",
      "effectiveGasPrice": "0x124f80",
      "blobGasUsed": "0x79e0",
      "from": "0x1234562eb0cd65e7d08e59f9f18d7c10b5df232a",
      "to": "0x33c6f26da09502e6540043f030ae1f87f109cc99",
      "contractAddress": null,
      "daFootprintGasScalar": "0x138",
      "l1BaseFeeScalar": "0x44d",
      "l1BlobBaseFee": "0x1",
      "l1BlobBaseFeeScalar": "0xa118b",
      "l1Fee": "0x5e",
      "l1GasPrice": "0x10",
      "l1GasUsed": "0x640"
    },
    {
      "status": "0x1",
      "cumulativeGasUsed": "0x30cdb2",
      "logs": [
        {
          "address": "0x7cb382ce1aa40fa9f9a59a632090c05dc28cae7b",
          "topics": [
            "0x97fd51fef1f80c854cbd0150c248e8b2ac4ecdc97cc05e742b5f61c9f4dc6458",
            "0x000000000000000000000000000000000000000000000000000000000000138b"
          ],
          "data": "0x0000000000000000000000007cb382ce1aa40fa9f9a59a632090c05dc28cae7b",
          "blockHash": "0x7fbc3395a556f1d7c748fd23a58931f94a08e86ffec2f2b3e0fa446c7f4c14f3",
          "blockNumber": "0x220cf8a",
          "blockTimestamp": "0x6954fdf4",
          "transactionHash": "0x5842bc32279f318ed0bedf1dfc03c9be191477c0dae779807cb7f343def55d03",
          "transactionIndex": "0xb",
          "logIndex": "0x4d",
          "removed": false
        }
      ],
      "logsBloom": "0x00000000000000000000000000000000000000000000000000000000000000000000000000002000000000000040000000000000000000000080000000000000000000000000000800000000000000000400000000000000000000000000000000000020000000000000000000000000000000000000000000000000000000000000000000000000000000000000000000000000000000000000000000000000000000000400000000000000000000000000000000000004000000000000000000000000000000000000000000000000000000000000000000000000000000000000000000000000000000000000000000000000000000000000200000000000",
      "type": "0x2",
      "transactionHash": "0x5842bc32279f318ed0bedf1dfc03c9be191477c0dae779807cb7f343def55d03",
      "transactionIndex": "0xb",
      "blockHash": "0x7fbc3395a556f1d7c748fd23a58931f94a08e86ffec2f2b3e0fa446c7f4c14f3",
      "blockNumber": "0x220cf8a",
      "gasUsed": "0x1c0b3",
      "effectiveGasPrice": "0x124f80",
      "blobGasUsed": "0x79e0",
      "from": "0x1234562eb0cd65e7d08e59f9f18d7c10b5df232a",
      "to": "0x7cb382ce1aa40fa9f9a59a632090c05dc28cae7b",
      "contractAddress": null,
      "daFootprintGasScalar": "0x138",
      "l1BaseFeeScalar": "0x44d",
      "l1BlobBaseFee": "0x1",
      "l1BlobBaseFeeScalar": "0xa118b",
      "l1Fee": "0x5e",
      "l1GasPrice": "0x10",
      "l1GasUsed": "0x640"
    },
    {
      "status": "0x1",
      "cumulativeGasUsed": "0x328e65",
      "logs": [
        {
          "address": "0x70db6efb75c898ad1e194fda2b8c6e73dbc944d6",
          "topics": [
            "0x97fd51fef1f80c854cbd0150c248e8b2ac4ecdc97cc05e742b5f61c9f4dc6458",
            "0x000000000000000000000000000000000000000000000000000000000000138b"
          ],
          "data": "0x00000000000000000000000070db6efb75c898ad1e194fda2b8c6e73dbc944d6",
          "blockHash": "0x7fbc3395a556f1d7c748fd23a58931f94a08e86ffec2f2b3e0fa446c7f4c14f3",
          "blockNumber": "0x220cf8a",
          "blockTimestamp": "0x6954fdf4",
          "transactionHash": "0xaaf5075d77a2d8f788d01a33aba18858022d1b1816f08ffff9bfbb471f9632ef",
          "transactionIndex": "0xc",
          "logIndex": "0x4e",
          "removed": false
        }
      ],
      "logsBloom": "0x00000000000000000000000000000000000000000000000000000000000000000000000000002000000000000040000000000000000000000080000000000000000000000000000800000000000000000002000000000000000000000000000000000000000000000000000000000000000000000000000000000000000000000000000000000000080000000000000000000000000000000000000000000000000000000000000000000000000000000000000000000004000000000000000000000000000000000000000000000000000000000000000000000000000000000000000000000000000000000000000000000000000000000000240000000000",
      "type": "0x2",
      "transactionHash": "0xaaf5075d77a2d8f788d01a33aba18858022d1b1816f08ffff9bfbb471f9632ef",
      "transactionIndex": "0xc",
      "blockHash": "0x7fbc3395a556f1d7c748fd23a58931f94a08e86ffec2f2b3e0fa446c7f4c14f3",
      "blockNumber": "0x220cf8a",
      "gasUsed": "0x1c0b3",
      "effectiveGasPrice": "0x124f80",
      "blobGasUsed": "0x79e0",
      "from": "0x1234562eb0cd65e7d08e59f9f18d7c10b5df232a",
      "to": "0x70db6efb75c898ad1e194fda2b8c6e73dbc944d6",
      "contractAddress": null,
      "daFootprintGasScalar": "0x138",
      "l1BaseFeeScalar": "0x44d",
      "l1BlobBaseFee": "0x1",
      "l1BlobBaseFeeScalar": "0xa118b",
      "l1Fee": "0x5e",
      "l1GasPrice": "0x10",
      "l1GasUsed": "0x640"
    },
    {
      "status": "0x1",
      "cumulativeGasUsed": "0x344f18",
      "logs": [
        {
          "address": "0xee589fbf85128aba6f42696db2f28ea9ebdde173",
          "topics": [
            "0x97fd51fef1f80c854cbd0150c248e8b2ac4ecdc97cc05e742b5f61c9f4dc6458",
            "0x000000000000000000000000000000000000000000000000000000000000138b"
          ],
          "data": "0x000000000000000000000000ee589fbf85128aba6f42696db2f28ea9ebdde173",
          "blockHash": "0x7fbc3395a556f1d7c748fd23a58931f94a08e86ffec2f2b3e0fa446c7f4c14f3",
          "blockNumber": "0x220cf8a",
          "blockTimestamp": "0x6954fdf4",
          "transactionHash": "0xeeaaa2f6f1ad2b3bd16f3f8a8439e7d94d97b0f0404262ac5a659577cd464551",
          "transactionIndex": "0xd",
          "logIndex": "0x4f",
          "removed": false
        }
      ],
      "logsBloom": "0x00000000000000000000000000000000000000000000000000000000000000000000000000002000000000000040000000000000000000000080000000000000000000000000000800000000000000000000000000000000000000000000000000000000000000000000000000000000000000000000000000000000000000010000000000000000000000000000000000000000000000000000000000000000000000000000000000000000000000000000000000000004000000000000000000000000000000000000000000000000000000000000010000000800000000000000000000000000000000000000000000000000000000000000200000000000",
      "type": "0x2",
      "transactionHash": "0xeeaaa2f6f1ad2b3bd16f3f8a8439e7d94d97b0f0404262ac5a659577cd464551",
      "transactionIndex": "0xd",
      "blockHash": "0x7fbc3395a556f1d7c748fd23a58931f94a08e86ffec2f2b3e0fa446c7f4c14f3",
      "blockNumber": "0x220cf8a",
      "gasUsed": "0x1c0b3",
      "effectiveGasPrice": "0x124f80",
      "blobGasUsed": "0x79e0",
      "from": "0x1234562eb0cd65e7d08e59f9f18d7c10b5df232a",
      "to": "0xee589fbf85128aba6f42696db2f28ea9ebdde173",
      "contractAddress": null,
      "daFootprintGasScalar": "0x138",
      "l1BaseFeeScalar": "0x44d",
      "l1BlobBaseFee": "0x1",
      "l1BlobBaseFeeScalar": "0xa118b",
      "l1Fee": "0x5e",
      "l1GasPrice": "0x10",
      "l1GasUsed": "0x640"
    },
    {
      "status": "0x1",
      "cumulativeGasUsed": "0x360fbf",
      "logs": [
        {
          "address": "0x2c036be74942c597e4d81d7050008ddc11becceb",
          "topics": [
            "0x97fd51fef1f80c854cbd0150c248e8b2ac4ecdc97cc05e742b5f61c9f4dc6458",
            "0x000000000000000000000000000000000000000000000000000000000000138b"
          ],
          "data": "0x0000000000000000000000002c036be74942c597e4d81d7050008ddc11becceb",
          "blockHash": "0x7fbc3395a556f1d7c748fd23a58931f94a08e86ffec2f2b3e0fa446c7f4c14f3",
          "blockNumber": "0x220cf8a",
          "blockTimestamp": "0x6954fdf4",
          "transactionHash": "0xa76fc3185d6dbb34f08ced243905cd5ec21444aef49f9b970e9922bc5109e449",
          "transactionIndex": "0xe",
          "logIndex": "0x50",
          "removed": false
        }
      ],
      "logsBloom": "0x00000000000000000000000000000040000000000000000000000000000000000000000000002000000000000040000000000000000000000880000000000000000000000000000800000000000000000000000000000000000000000000000000000000000000000000000000000000000000000000000000000000000000000200000000000000000000000000000000000000000000000000000000000000000000000000000000000000000000000000000000000004000000000000000000000000000000000000000000000000000000000000000000000000000000000000000000000000000000000000000000000000000000000000200000000000",
      "type": "0x2",
      "transactionHash": "0xa76fc3185d6dbb34f08ced243905cd5ec21444aef49f9b970e9922bc5109e449",
      "transactionIndex": "0xe",
      "blockHash": "0x7fbc3395a556f1d7c748fd23a58931f94a08e86ffec2f2b3e0fa446c7f4c14f3",
      "blockNumber": "0x220cf8a",
      "gasUsed": "0x1c0a7",
      "effectiveGasPrice": "0x124f80",
      "blobGasUsed": "0x79e0",
      "from": "0x1234562eb0cd65e7d08e59f9f18d7c10b5df232a",
      "to": "0x2c036be74942c597e4d81d7050008ddc11becceb",
      "contractAddress": null,
      "daFootprintGasScalar": "0x138",
      "l1BaseFeeScalar": "0x44d",
      "l1BlobBaseFee": "0x1",
      "l1BlobBaseFeeScalar": "0xa118b",
      "l1Fee": "0x5e",
      "l1GasPrice": "0x10",
      "l1GasUsed": "0x640"
    },
    {
      "status": "0x1",
      "cumulativeGasUsed": "0x37d072",
      "logs": [
        {
          "address": "0x90cdcbf4c4bc78dc440252211efd744d0a4dc4a1",
          "topics": [
            "0x97fd51fef1f80c854cbd0150c248e8b2ac4ecdc97cc05e742b5f61c9f4dc6458",
            "0x000000000000000000000000000000000000000000000000000000000000138b"
          ],
          "data": "0x00000000000000000000000090cdcbf4c4bc78dc440252211efd744d0a4dc4a1",
          "blockHash": "0x7fbc3395a556f1d7c748fd23a58931f94a08e86ffec2f2b3e0fa446c7f4c14f3",
          "blockNumber": "0x220cf8a",
          "blockTimestamp": "0x6954fdf4",
          "transactionHash": "0x64a303f5e935f578fca7fba6dc4ae114528c07f9b366e71bbe0d4cadc3283fe9",
          "transactionIndex": "0xf",
          "logIndex": "0x51",
          "removed": false
        }
      ],
      "logsBloom": "0x00000000000000000000000000000000000000000000000000000000000000000000000000002000000000000040000000000200000000000080000000000000000000000000000800000000000000000000000000000000000000000000000000000000000000000000000000000000000000000000000000040000000000000000000000000000000000000000000000000000000000000000000000000000000000000000000000000000000000000000000000000004000000000000000000000000000000000000000000000000000000000000000000000000000000000000000000000000000000080000000000000000000000000000200000000000",
      "type": "0x2",
      "transactionHash": "0x64a303f5e935f578fca7fba6dc4ae114528c07f9b366e71bbe0d4cadc3283fe9",
      "transactionIndex": "0xf",
      "blockHash": "0x7fbc3395a556f1d7c748fd23a58931f94a08e86ffec2f2b3e0fa446c7f4c14f3",
      "blockNumber": "0x220cf8a",
      "gasUsed": "0x1c0b3",
      "effectiveGasPrice": "0x124f80",
      "blobGasUsed": "0x79e0",
      "from": "0x1234562eb0cd65e7d08e59f9f18d7c10b5df232a",
      "to": "0x90cdcbf4c4bc78dc440252211efd744d0a4dc4a1",
      "contractAddress": null,
      "daFootprintGasScalar": "0x138",
      "l1BaseFeeScalar": "0x44d",
      "l1BlobBaseFee": "0x1",
      "l1BlobBaseFeeScalar": "0xa118b",
      "l1Fee": "0x5e",
      "l1GasPrice": "0x10",
      "l1GasUsed": "0x640"
    },
    {
      "status": "0x1",
      "cumulativeGasUsed": "0x399125",
      "logs": [
        {
          "address": "0xced6ceb47301f268d57ff07879df45fda80e6974",
          "topics": [
            "0x97fd51fef1f80c854cbd0150c248e8b2ac4ecdc97cc05e742b5f61c9f4dc6458",
            "0x000000000000000000000000000000000000000000000000000000000000138b"
          ],
          "data": "0x000000000000000000000000ced6ceb47301f268d57ff07879df45fda80e6974",
          "blockHash": "0x7fbc3395a556f1d7c748fd23a58931f94a08e86ffec2f2b3e0fa446c7f4c14f3",
          "blockNumber": "0x220cf8a",
          "blockTimestamp": "0x6954fdf4",
          "transactionHash": "0xde19b3c29e1d4551b1d4395d2fa5ee165c34533c66bd34be94ef102c2add057f",
          "transactionIndex": "0x10",
          "logIndex": "0x52",
          "removed": false
        }
      ],
      "logsBloom": "0x00000000000000000000000000000000000000000000000000000000000000000000000000002000000000000040000000000000000000000080000000000000000000000000000800000000000000000000000000000000000000000000000000000000000000000000000000000000000008000100000000000000000000000000000000000000000000000000000000000000000000000000000000000000000000000000000000000000000000000000000000000004000000000000000000000000000002000000000000000000000000000000000000000000000000000000000000000000000000000000000000000000000000000000200000000000",
      "type": "0x2",
      "transactionHash": "0xde19b3c29e1d4551b1d4395d2fa5ee165c34533c66bd34be94ef102c2add057f",
      "transactionIndex": "0x10",
      "blockHash": "0x7fbc3395a556f1d7c748fd23a58931f94a08e86ffec2f2b3e0fa446c7f4c14f3",
      "blockNumber": "0x220cf8a",
      "gasUsed": "0x1c0b3",
      "effectiveGasPrice": "0x124f80",
      "blobGasUsed": "0x79e0",
      "from": "0x1234562eb0cd65e7d08e59f9f18d7c10b5df232a",
      "to": "0xced6ceb47301f268d57ff07879df45fda80e6974",
      "contractAddress": null,
      "daFootprintGasScalar": "0x138",
      "l1BaseFeeScalar": "0x44d",
      "l1BlobBaseFee": "0x1",
      "l1BlobBaseFeeScalar": "0xa118b",
      "l1Fee": "0x5e",
      "l1GasPrice": "0x10",
      "l1GasUsed": "0x640"
    },
    {
      "status": "0x1",
      "cumulativeGasUsed": "0x3b51d8",
      "logs": [
        {
          "address": "0x782ba48189af93a0cf42766058de83291f384bf3",
          "topics": [
            "0x97fd51fef1f80c854cbd0150c248e8b2ac4ecdc97cc05e742b5f61c9f4dc6458",
            "0x000000000000000000000000000000000000000000000000000000000000138b"
          ],
          "data": "0x000000000000000000000000782ba48189af93a0cf42766058de83291f384bf3",
          "blockHash": "0x7fbc3395a556f1d7c748fd23a58931f94a08e86ffec2f2b3e0fa446c7f4c14f3",
          "blockNumber": "0x220cf8a",
          "blockTimestamp": "0x6954fdf4",
          "transactionHash": "0x7281b1fa3d9f339a9090b3c7a60473d04170432fc326a6e3cfe614d845f0a916",
          "transactionIndex": "0x11",
          "logIndex": "0x53",
          "removed": false
        }
      ],
      "logsBloom": "0x00000000000000000000000000000000000000000000000000000000000000000000000000002000000000000040000000000000000000000080000000000000000000000000000800000000000000000000000000000000000000000000000000000000000000000000000000000000000000000000000000000000000000000000000000000000000000000000000000000000000000000000000000000000000000000010000000000000000000000000000000000004000000000000000000000000000000000000000000000000002000000000000000000000000000000000000000000000000000000000000000000000000000000000200000000040",
      "type": "0x2",
      "transactionHash": "0x7281b1fa3d9f339a9090b3c7a60473d04170432fc326a6e3cfe614d845f0a916",
      "transactionIndex": "0x11",
      "blockHash": "0x7fbc3395a556f1d7c748fd23a58931f94a08e86ffec2f2b3e0fa446c7f4c14f3",
      "blockNumber": "0x220cf8a",
      "gasUsed": "0x1c0b3",
      "effectiveGasPrice": "0x124f80",
      "blobGasUsed": "0x79e0",
      "from": "0x1234562eb0cd65e7d08e59f9f18d7c10b5df232a",
      "to": "0x782ba48189af93a0cf42766058de83291f384bf3",
      "contractAddress": null,
      "daFootprintGasScalar": "0x138",
      "l1BaseFeeScalar": "0x44d",
      "l1BlobBaseFee": "0x1",
      "l1BlobBaseFeeScalar": "0xa118b",
      "l1Fee": "0x5e",
      "l1GasPrice": "0x10",
      "l1GasUsed": "0x640"
    }
  ],
  "libraries": [],
  "pending": [],
  "returns": {},
  "timestamp": 1767177716749,
  "chain": 84532,
  "commit": "247a8c3"
}