{
  "transactions": [
    {
      "hash": "0x3ff443ed15f7d193d2f8ddc43bdc15e2c17335ae972d76994410170212495c6d",
      "transactionType": "CALL",
      "contractName": null,
      "contractAddress": "0xb288ba5b5b80dd0fd83541ef2e5922f71121fa13",
      "function": "enrollRemoteRouter(uint32,bytes32)",
      "arguments": [
        "84532",
        "0x000000000000000000000000b288ba5b5b80dd0fd83541ef2e5922f71121fa13"
      ],
      "transaction": {
        "from": "0x1234562eb0cd65e7d08e59f9f18d7c10b5df232a",
        "to": "0xb288ba5b5b80dd0fd83541ef2e5922f71121fa13",
        "gas": "0x21421d79",
        "value": "0x0",
        "input": "0xb49c53a70000000000000000000000000000000000000000000000000000000000014a34000000000000000000000000b288ba5b5b80dd0fd83541ef2e5922f71121fa13",
        "nonce": "0x147",
        "chainId": "0x138b"
      },
      "additionalContracts": [],
      "isFixedGasLimit": false
    },
    {
      "hash": "0x22b8bd2427269eb267a73840dcd4566a39c0cd208c1e692316bed5628aaa8032",
      "transactionType": "CALL",
      "contractName": null,
      "contractAddress": "0xc4a53c466cfb62aeced03008b0162baaf36e0b03",
      "function": "enrollRemoteRouter(uint32,bytes32)",
      "arguments": [
        "84532",
        "0x000000000000000000000000c4a53c466cfb62aeced03008b0162baaf36e0b03"
      ],
      "transaction": {
        "from": "0x1234562eb0cd65e7d08e59f9f18d7c10b5df232a",
        "to": "0xc4a53c466cfb62aeced03008b0162baaf36e0b03",
        "gas": "0x21421d79",
        "value": "0x0",
        "input": "0xb49c53a70000000000000000000000000000000000000000000000000000000000014a34000000000000000000000000c4a53c466cfb62aeced03008b0162baaf36e0b03",
        "nonce": "0x148",
        "chainId": "0x138b"
      },
      "additionalContracts": [],
      "isFixedGasLimit": false
    },
    {
      "hash": "0xd50affde5a26535d1e33e42d5a681136af7be1612830292b449c3625c3d2b1e1",
      "transactionType": "CALL",
      "contractName": null,
      "contractAddress": "0x33c6f26da09502e6540043f030ae1f87f109cc99",
      "function": "enrollRemoteRouter(uint32,bytes32)",
      "arguments": [
        "84532",
        "0x00000000000000000000000033c6f26da09502e6540043f030ae1f87f109cc99"
      ],
      "transaction": {
        "from": "0x1234562eb0cd65e7d08e59f9f18d7c10b5df232a",
        "to": "0x33c6f26da09502e6540043f030ae1f87f109cc99",
        "gas": "0x214139cc",
        "value": "0x0",
        "input": "0xb49c53a70000000000000000000000000000000000000000000000000000000000014a3400000000000000000000000033c6f26da09502e6540043f030ae1f87f109cc99",
        "nonce": "0x149",
        "chainId": "0x138b"
      },
      "additionalContracts": [],
      "isFixedGasLimit": false
    },
    {
      "hash": "0xbc1111622ee45a552cc473c6647ba8cd4f2f6cb2037586a6399ce6dd152cd493",
      "transactionType": "CALL",
      "contractName": null,
      "contractAddress": "0x7cb382ce1aa40fa9f9a59a632090c05dc28cae7b",
      "function": "enrollRemoteRouter(uint32,bytes32)",
      "arguments": [
        "84532",
        "0x0000000000000000000000007cb382ce1aa40fa9f9a59a632090c05dc28cae7b"
      ],
      "transaction": {
        "from": "0x1234562eb0cd65e7d08e59f9f18d7c10b5df232a",
        "to": "0x7cb382ce1aa40fa9f9a59a632090c05dc28cae7b",
        "gas": "0x21421d79",
        "value": "0x0",
        "input": "0xb49c53a70000000000000000000000000000000000000000000000000000000000014a340000000000000000000000007cb382ce1aa40fa9f9a59a632090c05dc28cae7b",
        "nonce": "0x14a",
        "chainId": "0x138b"
      },
      "additionalContracts": [],
      "isFixedGasLimit": false
    },
    {
      "hash": "0x72c64a947fcac70a09110d00faf2a28c2593feb64d397a4ee1fec0ba63936cfa",
      "transactionType": "CALL",
      "contractName": null,
      "contractAddress": "0x70db6efb75c898ad1e194fda2b8c6e73dbc944d6",
      "function": "enrollRemoteRouter(uint32,bytes32)",
      "arguments": [
        "84532",
        "0x00000000000000000000000070db6efb75c898ad1e194fda2b8c6e73dbc944d6"
      ],
      "transaction": {
        "from": "0x1234562eb0cd65e7d08e59f9f18d7c10b5df232a",
        "to": "0x70db6efb75c898ad1e194fda2b8c6e73dbc944d6",
        "gas": "0x21421d79",
        "value": "0x0",
        "input": "0xb49c53a70000000000000000000000000000000000000000000000000000000000014a3400000000000000000000000070db6efb75c898ad1e194fda2b8c6e73dbc944d6",
        "nonce": "0x14b",
        "chainId": "0x138b"
      },
      "additionalContracts": [],
      "isFixedGasLimit": false
    },
    {
      "hash": "0x58e051c843fdc60a361cea564e4ce296fff26432e2315803b4b5be08eae6c589",
      "transactionType": "CALL",
      "contractName": null,
      "contractAddress": "0xee589fbf85128aba6f42696db2f28ea9ebdde173",
      "function": "enrollRemoteRouter(uint32,bytes32)",
      "arguments": [
        "84532",
        "0x000000000000000000000000ee589fbf85128aba6f42696db2f28ea9ebdde173"
      ],
      "transaction": {
        "from": "0x1234562eb0cd65e7d08e59f9f18d7c10b5df232a",
        "to": "0xee589fbf85128aba6f42696db2f28ea9ebdde173",
        "gas": "0x21421d79",
        "value": "0x0",
        "input": "0xb49c53a70000000000000000000000000000000000000000000000000000000000014a34000000000000000000000000ee589fbf85128aba6f42696db2f28ea9ebdde173",
        "nonce": "0x14c",
        "chainId": "0x138b"
      },
      "additionalContracts": [],
      "isFixedGasLimit": false
    },
    {
      "hash": "0x1058d63c6f872d57aad1acdae1a477dad4336f5acf088d4c5030ef3f86a69b74",
      "transactionType": "CALL",
      "contractName": null,
      "contractAddress": "0x2c036be74942c597e4d81d7050008ddc11becceb",
      "function": "enrollRemoteRouter(uint32,bytes32)",
      "arguments": [
        "84532",
        "0x0000000000000000000000002c036be74942c597e4d81d7050008ddc11becceb"
      ],
      "transaction": {
        "from": "0x1234562eb0cd65e7d08e59f9f18d7c10b5df232a",
        "to": "0x2c036be74942c597e4d81d7050008ddc11becceb",
        "gas": "0x214139cc",
        "value": "0x0",
        "input": "0xb49c53a70000000000000000000000000000000000000000000000000000000000014a340000000000000000000000002c036be74942c597e4d81d7050008ddc11becceb",
        "nonce": "0x14d",
        "chainId": "0x138b"
      },
      "additionalContracts": [],
      "isFixedGasLimit": false
    },
    {
      "hash": "0x7165490fdcf08883d52a0c3e0aa1b434b23fbe1bccacb15fdf4e8c18eb2a2ac3",
      "transactionType": "CALL",
      "contractName": null,
      "contractAddress": "0x90cdcbf4c4bc78dc440252211efd744d0a4dc4a1",
      "function": "enrollRemoteRouter(uint32,bytes32)",
      "arguments": [
        "84532",
        "0x00000000000000000000000090cdcbf4c4bc78dc440252211efd744d0a4dc4a1"
      ],
      "transaction": {
        "from": "0x1234562eb0cd65e7d08e59f9f18d7c10b5df232a",
        "to": "0x90cdcbf4c4bc78dc440252211efd744d0a4dc4a1",
        "gas": "0x21421d79",
        "value": "0x0",
        "input": "0xb49c53a70000000000000000000000000000000000000000000000000000000000014a3400000000000000000000000090cdcbf4c4bc78dc440252211efd744d0a4dc4a1",
        "nonce": "0x14e",
        "chainId": "0x138b"
      },
      "additionalContracts": [],
      "isFixedGasLimit": false
    },
    {
      "hash": "0x14f7baba76f4242a95387ec13f8a2079f590820900977415dcfe5ce2c27e7d9a",
      "transactionType": "CALL",
      "contractName": null,
      "contractAddress": "0xced6ceb47301f268d57ff07879df45fda80e6974",
      "function": "enrollRemoteRouter(uint32,bytes32)",
      "arguments": [
        "84532",
        "0x000000000000000000000000ced6ceb47301f268d57ff07879df45fda80e6974"
      ],
      "transaction": {
        "from": "0x1234562eb0cd65e7d08e59f9f18d7c10b5df232a",
        "to": "0xced6ceb47301f268d57ff07879df45fda80e6974",
        "gas": "0x21421d79",
        "value": "0x0",
        "input": "0xb49c53a70000000000000000000000000000000000000000000000000000000000014a34000000000000000000000000ced6ceb47301f268d57ff07879df45fda80e6974",
        "nonce": "0x14f",
        "chainId": "0x138b"
      },
      "additionalContracts": [],
      "isFixedGasLimit": false
    },
    {
      "hash": "0x95f97056dfdaead528434b7fe61786c8f0fee25e22e53ce83f0018fb6cdcdc6e",
      "transactionType": "CALL",
      "contractName": null,
      "contractAddress": "0x782ba48189af93a0cf42766058de83291f384bf3",
      "function": "enrollRemoteRouter(uint32,bytes32)",
      "arguments": [
        "84532",
        "0x000000000000000000000000782ba48189af93a0cf42766058de83291f384bf3"
      ],
      "transaction": {
        "from": "0x1234562eb0cd65e7d08e59f9f18d7c10b5df232a",
        "to": "0x782ba48189af93a0cf42766058de83291f384bf3",
        "gas": "0x21421d79",
        "value": "0x0",
        "input": "0xb49c53a70000000000000000000000000000000000000000000000000000000000014a34000000000000000000000000782ba48189af93a0cf42766058de83291f384bf3",
        "nonce": "0x150",
        "chainId": "0x138b"
      },
      "additionalContracts": [],
      "isFixedGasLimit": false
    }
  ],
  "receipts": [
    {
      "status": "0x1",
      "cumulativeGasUsed": "0x152781e7",
      "logs": [
        {
          "address": "0xb288ba5b5b80dd0fd83541ef2e5922f71121fa13",
          "topics": [
            "0x97fd51fef1f80c854cbd0150c248e8b2ac4ecdc97cc05e742b5f61c9f4dc6458",
            "0x0000000000000000000000000000000000000000000000000000000000014a34"
          ],
          "data": "0x000000000000000000000000b288ba5b5b80dd0fd83541ef2e5922f71121fa13",
          "blockHash": "0x3fa45ca8accacf7f7cd7b282a54ea09cff82ce8627fa87792adccb341a99a4f4",
          "blockNumber": "0x1f4bda9",
          "blockTimestamp": "0x6954fe33",
          "transactionHash": "0x3ff443ed15f7d193d2f8ddc43bdc15e2c17335ae972d76994410170212495c6d",
          "transactionIndex": "0x1",
          "logIndex": "0x0",
          "removed": false
        }
      ],
      "logsBloom": "0x00000000000200000000000000000000000000000000000000000000000000000000000000002000000000000000000000000000000000000080000000000000000000000000000800000000200000000000000000800000000000000000000000000000000000000000008000000000000000000000000000000000000000000000000000000000000000000000000000000000000000000000000000000800000000000000000000000000000000000000000000000000100000000000000000000000000000000000000000000000000000000000000000000000000000000000000000000000000000000000000000000000000000000000000000000000",
      "type": "0x2",
      "transactionHash": "0x3ff443ed15f7d193d2f8ddc43bdc15e2c17335ae972d76994410170212495c6d",
      "transactionIndex": "0x1",
      "blockHash": "0x3fa45ca8accacf7f7cd7b282a54ea09cff82ce8627fa87792adccb341a99a4f4",
      "blockNumber": "0x1f4bda9",
      "gasUsed": "0x1526caee",
      "effectiveGasPrice": "0x1515f30",
      "from": "0x1234562eb0cd65e7d08e59f9f18d7c10b5df232a",
      "to": "0xb288ba5b5b80dd0fd83541ef2e5922f71121fa13",
      "contractAddress": null,
      "l1Fee": "0xc3c70",
      "l1FeeScalar": "0.01",
      "l1GasPrice": "0xa",
      "l1GasUsed": "0xa24",
      "tokenRatio": "0xc11"
    },
    {
      "status": "0x1",
      "cumulativeGasUsed": "0x152781db",
      "logs": [
        {
          "address": "0xc4a53c466cfb62aeced03008b0162baaf36e0b03",
          "topics": [
            "0x97fd51fef1f80c854cbd0150c248e8b2ac4ecdc97cc05e742b5f61c9f4dc6458",
            "0x0000000000000000000000000000000000000000000000000000000000014a34"
          ],
          "data": "0x000000000000000000000000c4a53c466cfb62aeced03008b0162baaf36e0b03",
          "blockHash": "0x733f62fa5c0e8697a3b78077006bd50497cebd2d141e0026b1c8285c022472a2",
          "blockNumber": "0x1f4bdb3",
          "blockTimestamp": "0x6954fe47",
          "transactionHash": "0x22b8bd2427269eb267a73840dcd4566a39c0cd208c1e692316bed5628aaa8032",
          "transactionIndex": "0x1",
          "logIndex": "0x0",
          "removed": false
        }
      ],
      "logsBloom": "0x00000000000200000000000000000000000000000000000000000000000000000000000000002000000000000000000000000000000000000080000000000000000000000000000800000000000000000000000000800000000000000000000000000000000000000000008000000000000000000000000000200000000000000000000000000000000000000000001000000000000000000000000000000000000000000000000000000000000000000000000000000000000000000000000000000000000000000000000000000000000000000000000000000000000000000000000000000000000000000001000000000000000000000000000000000000",
      "type": "0x2",
      "transactionHash": "0x22b8bd2427269eb267a73840dcd4566a39c0cd208c1e692316bed5628aaa8032",
      "transactionIndex": "0x1",
      "blockHash": "0x733f62fa5c0e8697a3b78077006bd50497cebd2d141e0026b1c8285c022472a2",
      "blockNumber": "0x1f4bdb3",
      "gasUsed": "0x1526caee",
      "effectiveGasPrice": "0x1515f30",
      "from": "0x1234562eb0cd65e7d08e59f9f18d7c10b5df232a",
      "to": "0xc4a53c466cfb62aeced03008b0162baaf36e0b03",
      "contractAddress": null,
      "l1Fee": "0xc5e39",
      "l1FeeScalar": "0.01",
      "l1GasPrice": "0xa",
      "l1GasUsed": "0xa40",
      "tokenRatio": "0xc11"
    },
    {
      "status": "0x1",
      "cumulativeGasUsed": "0x1526f2b1",
      "logs": [
        {
          "address": "0x33c6f26da09502e6540043f030ae1f87f109cc99",
          "topics": [
            "0x97fd51fef1f80c854cbd0150c248e8b2ac4ecdc97cc05e742b5f61c9f4dc6458",
            "0x0000000000000000000000000000000000000000000000000000000000014a34"
          ],
          "data": "0x00000000000000000000000033c6f26da09502e6540043f030ae1f87f109cc99",
          "blockHash": "0x7cd6dabaac66744cd62b9f8e64128bae8eb43cec43d923babb1e2e01bfbd063e",
          "blockNumber": "0x1f4bdba",
          "blockTimestamp": "0x6954fe55",
          "transactionHash": "0xd50affde5a26535d1e33e42d5a681136af7be1612830292b449c3625c3d2b1e1",
          "transactionIndex": "0x1",
          "logIndex": "0x0",
          "removed": false
        }
      ],
      "logsBloom": "0x00000000000200000000000000000000000000000000000000000000000000000000000000002000000000000000000000000000000000000080000000000000000000000000000800000000000000000000000000800000000000000000000000000000000000000000008000000000000000000000000000000000000000000000000000000000000000000000000000000000000000000000000000000000000000000000000040000000000000000000000000000000000000000000000000000000000000080000000000000000000000000000000000000000001000000000000000000000000000000000000000000000000000000000000000000000",
      "type": "0x2",
      "transactionHash": "0xd50affde5a26535d1e33e42d5a681136af7be1612830292b449c3625c3d2b1e1",
      "transactionIndex": "0x1",
      "blockHash": "0x7cd6dabaac66744cd62b9f8e64128bae8eb43cec43d923babb1e2e01bfbd063e",
      "blockNumber": "0x1f4bdba",
      "gasUsed": "0x15263bb8",
      "effectiveGasPrice": "0x1515f30",
      "from": "0x1234562eb0cd65e7d08e59f9f18d7c10b5df232a",
      "to": "0x33c6f26da09502e6540043f030ae1f87f109cc99",
      "contractAddress": null,
      "l1Fee": "0xc4144",
      "l1FeeScalar": "0.01",
      "l1GasPrice": "0xa",
      "l1GasUsed": "0xa28",
      "tokenRatio": "0xc11"
    },
    {
      "status": "0x1",
      "cumulativeGasUsed": "0x1527c4b3",
      "logs": [
        {
          "address": "0x7cb382ce1aa40fa9f9a59a632090c05dc28cae7b",
          "topics": [
            "0x97fd51fef1f80c854cbd0150c248e8b2ac4ecdc97cc05e742b5f61c9f4dc6458",
            "0x0000000000000000000000000000000000000000000000000000000000014a34"
          ],
          "data": "0x0000000000000000000000007cb382ce1aa40fa9f9a59a632090c05dc28cae7b",
          "blockHash": "0x450d18e5b7f1b54b7f6ed52b70f9fb0a9c44d8773803c3ab59462da752b1fa4d",
          "blockNumber": "0x1f4bdc3",
          "blockTimestamp": "0x6954fe67",
          "transactionHash": "0xbc1111622ee45a552cc473c6647ba8cd4f2f6cb2037586a6399ce6dd152cd493",
          "transactionIndex": "0x1",
          "logIndex": "0x0",
          "removed": false
        }
      ],
      "logsBloom": "0x00000000000200000000000000000000000000000000000000000000000000000000000000002000000000000000000000000000000000000080000000000000000000000000000800000000000000000400000000800000000000000000000000000020000000000000008000000000000000000000000000000000000000000000000000000000000000000000000000000000000000000000000000000000000000000400000000000000000000000000000000000000000000000000000000000000000000000000000000000000000000000000000000000000000000000000000000000000000000000000000000000000000000000000000000000000",
      "type": "0x2",
      "transactionHash": "0xbc1111622ee45a552cc473c6647ba8cd4f2f6cb2037586a6399ce6dd152cd493",
      "transactionIndex": "0x1",
      "blockHash": "0x450d18e5b7f1b54b7f6ed52b70f9fb0a9c44d8773803c3ab59462da752b1fa4d",
      "blockNumber": "0x1f4bdc3",
      "gasUsed": "0x1526caee",
      "effectiveGasPrice": "0x1515f30",
      "from": "0x1234562eb0cd65e7d08e59f9f18d7c10b5df232a",
      "to": "0x7cb382ce1aa40fa9f9a59a632090c05dc28cae7b",
      "contractAddress": null,
      "l1Fee": "0xc5e39",
      "l1FeeScalar": "0.01",
      "l1GasPrice": "0xa",
      "l1GasUsed": "0xa40",
      "tokenRatio": "0xc11"
    },
    {
      "status": "0x1",
      "cumulativeGasUsed": "0x152797bb",
      "logs": [
        {
          "address": "0x70db6efb75c898ad1e194fda2b8c6e73dbc944d6",
          "topics": [
            "0x97fd51fef1f80c854cbd0150c248e8b2ac4ecdc97cc05e742b5f61c9f4dc6458",
            "0x0000000000000000000000000000000000000000000000000000000000014a34"
          ],
          "data": "0x00000000000000000000000070db6efb75c898ad1e194fda2b8c6e73dbc944d6",
          "blockHash": "0xab7d27eaa34c77d2104a282a710547ad0569f1266656f38da43bc81ebc7d9916",
          "blockNumber": "0x1f4bdc8",
          "blockTimestamp": "0x6954fe71",
          "transactionHash": "0x72c64a947fcac70a09110d00faf2a28c2593feb64d397a4ee1fec0ba63936cfa",
          "transactionIndex": "0x1",
          "logIndex": "0x0",
          "removed": false
        }
      ],
      "logsBloom": "0x00000000000200000000000000000000000000000000000000000000000000000000000000002000000000000000000000000000000000000080000000000000000000000000000800000000000000000002000000800000000000000000000000000000000000000000008000000000000000000000000000000000000000000000000000000000080000000000000000000000000000000000000000000000000000000000000000000000000000000000000000000000000000000000000000000000000000000000000000000000000000000000000000000000000000000000000000000000000000000000000000000000000000000000040000000000",
      "type": "0x2",
      "transactionHash": "0x72c64a947fcac70a09110d00faf2a28c2593feb64d397a4ee1fec0ba63936cfa",
      "transactionIndex": "0x1",
      "blockHash": "0xab7d27eaa34c77d2104a282a710547ad0569f1266656f38da43bc81ebc7d9916",
      "blockNumber": "0x1f4bdc8",
      "gasUsed": "0x1526caee",
      "effectiveGasPrice": "0x1515f30",
      "from": "0x1234562eb0cd65e7d08e59f9f18d7c10b5df232a",
      "to": "0x70db6efb75c898ad1e194fda2b8c6e73dbc944d6",
      "contractAddress": null,
      "l1Fee": "0xc5e39",
      "l1FeeScalar": "0.01",
      "l1GasPrice": "0xa",
      "l1GasUsed": "0xa40",
      "tokenRatio": "0xc11"
    },
    {
      "status": "0x1",
      "cumulativeGasUsed": "0x152781e7",
      "logs": [
        {
          "address": "0xee589fbf85128aba6f42696db2f28ea9ebdde173",
          "topics": [
            "0x97fd51fef1f80c854cbd0150c248e8b2ac4ecdc97cc05e742b5f61c9f4dc6458",
            "0x0000000000000000000000000000000000000000000000000000000000014a34"
          ],
          "data": "0x000000000000000000000000ee589fbf85128aba6f42696db2f28ea9ebdde173",
          "blockHash": "0x7733e5b26dbef295f32256539a1ba2fe44416431b54a92edf677ab2dd40f7439",
          "blockNumber": "0x1f4bdcb",
          "blockTimestamp": "0x6954fe77",
          "transactionHash": "0x58e051c843fdc60a361cea564e4ce296fff26432e2315803b4b5be08eae6c589",
          "transactionIndex": "0x1",
          "logIndex": "0x0",
          "removed": false
        }
      ],
      "logsBloom": "0x00000000000200000000000000000000000000000000000000000000000000000000000000002000000000000000000000000000000000000080000000000000000000000000000800000000000000000000000000800000000000000000000000000000000000000000008000000000000000000000000000000000000000010000000000000000000000000000000000000000000000000000000000000000000000000000000000000000000000000000000000000000000000000000000000000000000000000000000000000000000000000000010000000800000000000000000000000000000000000000000000000000000000000000000000000000",
      "type": "0x2",
      "transactionHash": "0x58e051c843fdc60a361cea564e4ce296fff26432e2315803b4b5be08eae6c589",
      "transactionIndex": "0x1",
      "blockHash": "0x7733e5b26dbef295f32256539a1ba2fe44416431b54a92edf677ab2dd40f7439",
      "blockNumber": "0x1f4bdcb",
      "gasUsed": "0x1526caee",
      "effectiveGasPrice": "0x1515f30",
      "from": "0x1234562eb0cd65e7d08e59f9f18d7c10b5df232a",
      "to": "0xee589fbf85128aba6f42696db2f28ea9ebdde173",
      "contractAddress": null,
      "l1Fee": "0xc4fbe",
      "l1FeeScalar": "0.01",
      "l1GasPrice": "0xa",
      "l1GasUsed": "0xa34",
      "tokenRatio": "0xc11"
    },
    {
      "status": "0x1",
      "cumulativeGasUsed": "0x1527357d",
      "logs": [
        {
          "address": "0x2c036be74942c597e4d81d7050008ddc11becceb",
          "topics": [
            "0x97fd51fef1f80c854cbd0150c248e8b2ac4ecdc97cc05e742b5f61c9f4dc6458",
            "0x0000000000000000000000000000000000000000000000000000000000014a34"
          ],
          "data": "0x0000000000000000000000002c036be74942c597e4d81d7050008ddc11becceb",
          "blockHash": "0x5fc2af3dda1680a3fc0dbd3cd5d29aaca1d91d1f717a0776efb324f014572919",
          "blockNumber": "0x1f4bdcf",
          "blockTimestamp": "0x6954fe7f",
          "transactionHash": "0x1058d63c6f872d57aad1acdae1a477dad4336f5acf088d4c5030ef3f86a69b74",
          "transactionIndex": "0x1",
          "logIndex": "0x0",
          "removed": false
        }
      ],
      "logsBloom": "0x00000000000200000000000000000040000000000000000000000000000000000000000000002000000000000000000000000000000000000880000000000000000000000000000800000000000000000000000000800000000000000000000000000000000000000000008000000000000000000000000000000000000000000200000000000000000000000000000000000000000000000000000000000000000000000000000000000000000000000000000000000000000000000000000000000000000000000000000000000000000000000000000000000000000000000000000000000000000000000000000000000000000000000000000000000000",
      "type": "0x2",
      "transactionHash": "0x1058d63c6f872d57aad1acdae1a477dad4336f5acf088d4c5030ef3f86a69b74",
      "transactionIndex": "0x1",
      "blockHash": "0x5fc2af3dda1680a3fc0dbd3cd5d29aaca1d91d1f717a0776efb324f014572919",
      "blockNumber": "0x1f4bdcf",
      "gasUsed": "0x15263bb8",
      "effectiveGasPrice": "0x1515f30",
      "from": "0x1234562eb0cd65e7d08e59f9f18d7c10b5df232a",
      "to": "0x2c036be74942c597e4d81d7050008ddc11becceb",
      "contractAddress": null,
      "l1Fee": "0xc32c9",
      "l1FeeScalar": "0.01",
      "l1GasPrice": "0xa",
      "l1GasUsed": "0xa1c",
      "tokenRatio": "0xc11"
    },
    {
      "status": "0x1",
      "cumulativeGasUsed": "0x152781e7",
      "logs": [
        {
          "address": "0x90cdcbf4c4bc78dc440252211efd744d0a4dc4a1",
          "topics": [
            "0x97fd51fef1f80c854cbd0150c248e8b2ac4ecdc97cc05e742b5f61c9f4dc6458",
            "0x0000000000000000000000000000000000000000000000000000000000014a34"
          ],
          "data": "0x00000000000000000000000090cdcbf4c4bc78dc440252211efd744d0a4dc4a1",
          "blockHash": "0xc462c087498665d9922988e534954c626d8968080587e90a3016092a1ff3eb12",
          "blockNumber": "0x1f4bdd3",
          "blockTimestamp": "0x6954fe87",
          "transactionHash": "0x7165490fdcf08883d52a0c3e0aa1b434b23fbe1bccacb15fdf4e8c18eb2a2ac3",
          "transactionIndex": "0x1",
          "logIndex": "0x0",
          "removed": false
        }
      ],
      "logsBloom": "0x00000000000200000000000000000000000000000000000000000000000000000000000000002000000000000000000000000200000000000080000000000000000000000000000800000000000000000000000000800000000000000000000000000000000000000000008000000000000000000000000000040000000000000000000000000000000000000000000000000000000000000000000000000000000000000000000000000000000000000000000000000000000000000000000000000000000000000000000000000000000000000000000000000000000000000000000000000000000000080000000000000000000000000000000000000000",
      "type": "0x2",
      "transactionHash": "0x7165490fdcf08883d52a0c3e0aa1b434b23fbe1bccacb15fdf4e8c18eb2a2ac3",
      "transactionIndex": "0x1",
      "blockHash": "0xc462c087498665d9922988e534954c626d8968080587e90a3016092a1ff3eb12",
      "blockNumber": "0x1f4bdd3",
      "gasUsed": "0x1526caee",
      "effectiveGasPrice": "0x1515f30",
      "from": "0x1234562eb0cd65e7d08e59f9f18d7c10b5df232a",
      "to": "0x90cdcbf4c4bc78dc440252211efd744d0a4dc4a1",
      "contractAddress": null,
      "l1Fee": "0xc5e39",
      "l1FeeScalar": "0.01",
      "l1GasPrice": "0xa",
      "l1GasUsed": "0xa40",
      "tokenRatio": "0xc11"
    },
    {
      "status": "0x1",
      "cumulativeGasUsed": "0x152781db",
      "logs": [
        {
          "address": "0xced6ceb47301f268d57ff07879df45fda80e6974",
          "topics": [
            "0x97fd51fef1f80c854cbd0150c248e8b2ac4ecdc97cc05e742b5f61c9f4dc6458",
            "0x0000000000000000000000000000000000000000000000000000000000014a34"
          ],
          "data": "0x000000000000000000000000ced6ceb47301f268d57ff07879df45fda80e6974",
          "blockHash": "0xc563c55de00dc7f7a2ff2d4dd8558ebca5ebac83fe26d77d0e42c12021883a89",
          "blockNumber": "0x1f4bdd7",
          "blockTimestamp": "0x6954fe8f",
          "transactionHash": "0x14f7baba76f4242a95387ec13f8a2079f590820900977415dcfe5ce2c27e7d9a",
          "transactionIndex": "0x1",
          "logIndex": "0x0",
          "removed": false
        }
      ],
      "logsBloom": "0x00000000000200000000000000000000000000000000000000000000000000000000000000002000000000000000000000000000000000000080000000000000000000000000000800000000000000000000000000800000000000000000000000000000000000000000008000000000000008000100000000000000000000000000000000000000000000000000000000000000000000000000000000000000000000000000000000000000000000000000000000000000000000000000000000000000000002000000000000000000000000000000000000000000000000000000000000000000000000000000000000000000000000000000000000000000",
      "type": "0x2",
      "transactionHash": "0x14f7baba76f4242a95387ec13f8a2079f590820900977415dcfe5ce2c27e7d9a",
      "transactionIndex": "0x1",
      "blockHash": "0xc563c55de00dc7f7a2ff2d4dd8558ebca5ebac83fe26d77d0e42c12021883a89",
      "blockNumber": "0x1f4bdd7",
      "gasUsed": "0x1526caee",
      "effectiveGasPrice": "0x1515f30",
      "from": "0x1234562eb0cd65e7d08e59f9f18d7c10b5df232a",
      "to": "0xced6ceb47301f268d57ff07879df45fda80e6974",
      "contractAddress": null,
      "l1Fee": "0xc4fbe",
      "l1FeeScalar": "0.01",
      "l1GasPrice": "0xa",
      "l1GasUsed": "0xa34",
      "tokenRatio": "0xc11"
    },
    {
      "status": "0x1",
      "cumulativeGasUsed": "0x1527c4b3",
      "logs": [
        {
          "address": "0x782ba48189af93a0cf42766058de83291f384bf3",
          "topics": [
            "0x97fd51fef1f80c854cbd0150c248e8b2ac4ecdc97cc05e742b5f61c9f4dc6458",
            "0x0000000000000000000000000000000000000000000000000000000000014a34"
          ],
          "data": "0x000000000000000000000000782ba48189af93a0cf42766058de83291f384bf3",
          "blockHash": "0xd2bd33bdf0630e449d7105173c0ad50217f6b2f067ff3ee554454682f39573cd",
          "blockNumber": "0x1f4bddb",
          "blockTimestamp": "0x6954fe97",
          "transactionHash": "0x95f97056dfdaead528434b7fe61786c8f0fee25e22e53ce83f0018fb6cdcdc6e",
          "transactionIndex": "0x1",
          "logIndex": "0x0",
          "removed": false
        }
      ],
      "logsBloom": "0x00000000000200000000000000000000000000000000000000000000000000000000000000002000000000000000000000000000000000000080000000000000000000000000000800000000000000000000000000800000000000000000000000000000000000000000008000000000000000000000000000000000000000000000000000000000000000000000000000000000000000000000000000000000000000000010000000000000000000000000000000000000000000000000000000000000000000000000000000000000002000000000000000000000000000000000000000000000000000000000000000000000000000000000000000000040",
      "type": "0x2",
      "transactionHash": "0x95f97056dfdaead528434b7fe61786c8f0fee25e22e53ce83f0018fb6cdcdc6e",
      "transactionIndex": "0x1",
      "blockHash": "0xd2bd33bdf0630e449d7105173c0ad50217f6b2f067ff3ee554454682f39573cd",
      "blockNumber": "0x1f4bddb",
      "gasUsed": "0x1526caee",
      "effectiveGasPrice": "0x1515f30",
      "from": "0x1234562eb0cd65e7d08e59f9f18d7c10b5df232a",
      "to": "0x782ba48189af93a0cf42766058de83291f384bf3",
      "contractAddress": null,
      "l1Fee": "0xb219a",
      "l1FeeScalar": "0.01",
      "l1GasPrice": "0x9",
      "l1GasUsed": "0xa40",
      "tokenRatio": "0xc11"
    }
  ],
  "libraries": [],
  "pending": [],
  "returns": {},
  "timestamp": 1767177882301,
  "chain": 5003,
  "commit": "247a8c3"
}