{
  "transactions": [
    {
      "hash": "0xfc752be6807dd0624deeb620822547b94ca99b47a37e8b1d0056eadfd54b55b6",
      "transactionType": "CALL",
      "contractName": null,
      "contractAddress": "0x26c59b5f149e48c235c031e603ec19869eeb4f65",
      "function": "enrollRemoteRouter(uint32,bytes32)",
      "arguments": [
        "84532",
        "0x00000000000000000000000026c59b5f149e48c235c031e603ec19869eeb4f65"
      ],
      "transaction": {
        "from": "0x1234562eb0cd65e7d08e59f9f18d7c10b5df232a",
        "to": "0x26c59b5f149e48c235c031e603ec19869eeb4f65",
        "gas": "0x20629ca0",
        "value": "0x0",
        "input": "0xb49c53a70000000000000000000000000000000000000000000000000000000000014a3400000000000000000000000026c59b5f149e48c235c031e603ec19869eeb4f65",
        "nonce": "0x13a",
        "chainId": "0x138b"
      },
      "additionalContracts": [],
      "isFixedGasLimit": false
    }
  ],
  "receipts": [
    {
      "status": "0x1",
      "cumulativeGasUsed": "0x14996d63",
      "logs": [
        {
          "address": "0x26c59b5f149e48c235c031e603ec19869eeb4f65",
          "topics": [
            "0x97fd51fef1f80c854cbd0150c248e8b2ac4ecdc97cc05e742b5f61c9f4dc6458",
            "0x0000000000000000000000000000000000000000000000000000000000014a34"
          ],
          "data": "0x00000000000000000000000026c59b5f149e48c235c031e603ec19869eeb4f65",
          "blockHash": "0x9f30aed76df3c4cac583e35636000598f8fcc21aaf73340b62ed1ebf289dfb04",
          "blockNumber": "0x1f3f0c9",
          "blockTimestamp": "0x69536473",
          "transactionHash": "0xfc752be6807dd0624deeb620822547b94ca99b47a37e8b1d0056eadfd54b55b6",
          "transactionIndex": "0x1",
          "logIndex": "0x0",
          "removed": false
        }
      ],
      "logsBloom": "0x00000000000200100000000000000000000000000000000000000000000000000000000000002000000000000000000000000000000000000080000000000000000000000000000800000000000000000000000000800000000000000000000000000000000000000020008000000000000000000002000000000000000000000000000000000000000000000000000000000000000000000000000000000000000000000000000000000000000000000000000000000000000000000000000000000000000000000000000000000000000000000000000000000000000000000000000000000000000000000000000000000000000000000000000000000000",
      "type": "0x2",
      "transactionHash": "0xfc752be6807dd0624deeb620822547b94ca99b47a37e8b1d0056eadfd54b55b6",
      "transactionIndex": "0x1",
      "blockHash": "0x9f30aed76df3c4cac583e35636000598f8fcc21aaf73340b62ed1ebf289dfb04",
      "blockNumber": "0x1f3f0c9",
      "gasUsed": "0x1498a096",
      "effectiveGasPrice": "0x5a9a1f50",
      "from": "0x1234562eb0cd65e7d08e59f9f18d7c10b5df232a",
      "to": "0x26c59b5f149e48c235c031e603ec19869eeb4f65",
      "contractAddress": null,
      "l1Fee": "0xd4451",
      "l1FeeScalar": "0.01",
      "l1GasPrice": "0xb",
      "l1GasUsed": "0xa50",
      "tokenRatio": "0xbb2"
    }
  ],
  "libraries": [],
  "pending": [],
  "returns": {},
  "timestamp": 1767072887025,
  "chain": 5003,
  "commit": "2c35a07"
}