{
  "transactions": [
    {
      "hash": "0xdaf49cf64c1feb870baed7e588b1faab0066a4357152f9764c0d7138b62f5184",
      "transactionType": "CALL",
      "contractName": null,
      "contractAddress": "0x8b0540ff220e21a7e639495de6211b397999feac",
      "function": "enrollRemoteRouter(uint32,bytes32)",
      "arguments": [
        "84532",
        "0x0000000000000000000000008b0540ff220e21a7e639495de6211b397999feac"
      ],
      "transaction": {
        "from": "0x1234562eb0cd65e7d08e59f9f18d7c10b5df232a",
        "to": "0x8b0540ff220e21a7e639495de6211b397999feac",
        "gas": "0x206ae8cb",
        "value": "0x0",
        "input": "0xb49c53a70000000000000000000000000000000000000000000000000000000000014a340000000000000000000000008b0540ff220e21a7e639495de6211b397999feac",
        "nonce": "0x135",
        "chainId": "0x138b"
      },
      "additionalContracts": [],
      "isFixedGasLimit": false
    }
  ],
  "receipts": [
    {
      "status": "0x1",
      "cumulativeGasUsed": "0x149ea948",
      "logs": [
        {
          "address": "0x8b0540ff220e21a7e639495de6211b397999feac",
          "topics": [
            "0x97fd51fef1f80c854cbd0150c248e8b2ac4ecdc97cc05e742b5f61c9f4dc6458",
            "0x0000000000000000000000000000000000000000000000000000000000014a34"
          ],
          "data": "0x0000000000000000000000008b0540ff220e21a7e639495de6211b397999feac",
          "blockHash": "0x80fc61a037fed6e94d4c929bc0faf7f3a7ee12bfb8e0425f490a5b79155bb0e5",
          "blockNumber": "0x1f3f04a",
          "blockTimestamp": "0x69536375",
          "transactionHash": "0xdaf49cf64c1feb870baed7e588b1faab0066a4357152f9764c0d7138b62f5184",
          "transactionIndex": "0x1",
          "logIndex": "0x0",
          "removed": false
        }
      ],
      "logsBloom": "0x00000000000200000000000000000000000002000000000000000000000000000000020000002000000000000000000000000000000000000080000000000000000000000000000800000000000000000000000000800000000000000000000000000000000000000000008000000000000000000000000000000000000000000000000000000000000000000000000000000000000000000000000000000000000000000000000000000000000000000000000000000000000000000000000000000000000000000000000000000000000000000000000000000000000000000000000000000000000000000000000000002000000000000000000000000000",
      "type": "0x2",
      "transactionHash": "0xdaf49cf64c1feb870baed7e588b1faab0066a4357152f9764c0d7138b62f5184",
      "transactionIndex": "0x1",
      "blockHash": "0x80fc61a037fed6e94d4c929bc0faf7f3a7ee12bfb8e0425f490a5b79155bb0e5",
      "blockNumber": "0x1f3f04a",
      "gasUsed": "0x149df24f",
      "effectiveGasPrice": "0x5a9a5024",
      "from": "0x1234562eb0cd65e7d08e59f9f18d7c10b5df232a",
      "to": "0x8b0540ff220e21a7e639495de6211b397999feac",
      "contractAddress": null,
      "l1Fee": "0xe7cc9",
      "l1FeeScalar": "0.01",
      "l1GasPrice": "0xc",
      "l1GasUsed": "0xa50",
      "tokenRatio": "0xbb5"
    }
  ],
  "libraries": [],
  "pending": [],
  "returns": {},
  "timestamp": 1767072633180,
  "chain": 5003,
  "commit": "2c35a07"
}