{
  "transactions": [
    {
      "hash": "0xd88c7a46789a2db44d078dba00221c82d194fc5638151f659e9f6916388d55b0",
      "transactionType": "CALL",
      "contractName": null,
      "contractAddress": "0x61e8390eb1493112b4480f5024500d92779cf886",
      "function": "enrollRemoteRouter(uint32,bytes32)",
      "arguments": [
        "84532",
        "0x00000000000000000000000061e8390eb1493112b4480f5024500d92779cf886"
      ],
      "transaction": {
        "from": "0x1234562eb0cd65e7d08e59f9f18d7c10b5df232a",
        "to": "0x61e8390eb1493112b4480f5024500d92779cf886",
        "gas": "0x20629ca0",
        "value": "0x0",
        "input": "0xb49c53a70000000000000000000000000000000000000000000000000000000000014a3400000000000000000000000061e8390eb1493112b4480f5024500d92779cf886",
        "nonce": "0x13c",
        "chainId": "0x138b"
      },
      "additionalContracts": [],
      "isFixedGasLimit": false
    }
  ],
  "receipts": [
    {
      "status": "0x1",
      "cumulativeGasUsed": "0x14996d63",
      "logs": [
        {
          "address": "0x61e8390eb1493112b4480f5024500d92779cf886",
          "topics": [
            "0x97fd51fef1f80c854cbd0150c248e8b2ac4ecdc97cc05e742b5f61c9f4dc6458",
            "0x0000000000000000000000000000000000000000000000000000000000014a34"
          ],
          "data": "0x00000000000000000000000061e8390eb1493112b4480f5024500d92779cf886",
          "blockHash": "0x0881decd3c58ba7cac6e8c26c69ad83ff30a1b14119c9c5aa426f34f4b8711eb",
          "blockNumber": "0x1f3f0f9",
          "blockTimestamp": "0x695364d3",
          "transactionHash": "0xd88c7a46789a2db44d078dba00221c82d194fc5638151f659e9f6916388d55b0",
          "transactionIndex": "0x1",
          "logIndex": "0x0",
          "removed": false
        }
      ],
      "logsBloom": "0x00000000000200000000000000000000000000000000000000000000000000000000000000002000000000000000000000000000200000000080000000000000000000000000000800000000000000000000000000800000000000000000000000000000000000000000008000000000000000008000000000000000000000000000000000000000000000000000000000000000000000000000000000000000000000010000000000000000000000000000000000000000000000000000000000000000000000000000000000000000000000000000000000000000000000000000000000000000000000000000000000000000000000000000000000000000",
      "type": "0x2",
      "transactionHash": "0xd88c7a46789a2db44d078dba00221c82d194fc5638151f659e9f6916388d55b0",
      "transactionIndex": "0x1",
      "blockHash": "0x0881decd3c58ba7cac6e8c26c69ad83ff30a1b14119c9c5aa426f34f4b8711eb",
      "blockNumber": "0x1f3f0f9",
      "gasUsed": "0x1498a096",
      "effectiveGasPrice": "0x1331548",
      "from": "0x1234562eb0cd65e7d08e59f9f18d7c10b5df232a",
      "to": "0x61e8390eb1493112b4480f5024500d92779cf886",
      "contractAddress": null,
      "l1Fee": "0xe629e",
      "l1FeeScalar": "0.01",
      "l1GasPrice": "0xc",
      "l1GasUsed": "0xa40",
      "tokenRatio": "0xbb2"
    }
  ],
  "libraries": [],
  "pending": [],
  "returns": {},
  "timestamp": 1767072981021,
  "chain": 5003,
  "commit": "2c35a07"
}