{
  "transactions": [
    {
      "hash": "0x89462b796b70bbfb2d8377369531d30d256a32fff5689bcccf7423da8111c594",
      "transactionType": "CALL",
      "contractName": null,
      "contractAddress": "0x4d30b282d5ac92f3c3674719e7668c53de4bcf43",
      "function": "enrollRemoteRouter(uint32,bytes32)",
      "arguments": [
        "84532",
        "0x0000000000000000000000004d30b282d5ac92f3c3674719e7668c53de4bcf43"
      ],
      "transaction": {
        "from": "0x1234562eb0cd65e7d08e59f9f18d7c10b5df232a",
        "to": "0x4d30b282d5ac92f3c3674719e7668c53de4bcf43",
        "gas": "0x206ae8cb",
        "value": "0x0",
        "input": "0xb49c53a70000000000000000000000000000000000000000000000000000000000014a340000000000000000000000004d30b282d5ac92f3c3674719e7668c53de4bcf43",
        "nonce": "0x134",
        "chainId": "0x138b"
      },
      "additionalContracts": [],
      "isFixedGasLimit": false
    }
  ],
  "receipts": [
    {
      "status": "0x1",
      "cumulativeGasUsed": "0x149ea93c",
      "logs": [
        {
          "address": "0x4d30b282d5ac92f3c3674719e7668c53de4bcf43",
          "topics": [
            "0x97fd51fef1f80c854cbd0150c248e8b2ac4ecdc97cc05e742b5f61c9f4dc6458",
            "0x0000000000000000000000000000000000000000000000000000000000014a34"
          ],
          "data": "0x0000000000000000000000004d30b282d5ac92f3c3674719e7668c53de4bcf43",
          "blockHash": "0xaa14a9deda9f28a5a7b099668dfdf1232baa2fc3770af6bf0e2c87506826df49",
          "blockNumber": "0x1f3f02f",
          "blockTimestamp": "0x6953633f",
          "transactionHash": "0x89462b796b70bbfb2d8377369531d30d256a32fff5689bcccf7423da8111c594",
          "transactionIndex": "0x1",
          "logIndex": "0x0",
          "removed": false
        }
      ],
      "logsBloom": "0x00000020000200200000000000000000000000000000000000000000000000000000000000002000000000000000000000000000000000000080000000000000000000000000000800000000000000000000000000800000000000000000000000000000000000000000008000000000000000000000000000000000000000000000000000000000000000000000000000000000000000000000000000000000000000000000000000000000000001000000000000000000000000000000000000000000000000000000000000000000000000000000000000000000000000000000000000000000000000000000000000000000000000000000000000000000",
      "type": "0x2",
      "transactionHash": "0x89462b796b70bbfb2d8377369531d30d256a32fff5689bcccf7423da8111c594",
      "transactionIndex": "0x1",
      "blockHash": "0xaa14a9deda9f28a5a7b099668dfdf1232baa2fc3770af6bf0e2c87506826df49",
      "blockNumber": "0x1f3f02f",
      "gasUsed": "0x149df24f",
      "effectiveGasPrice": "0x1312d01",
      "from": "0x1234562eb0cd65e7d08e59f9f18d7c10b5df232a",
      "to": "0x4d30b282d5ac92f3c3674719e7668c53de4bcf43",
      "contractAddress": null,
      "l1Fee": "0xe22e0",
      "l1FeeScalar": "0.01",
      "l1GasPrice": "0xc",
      "l1GasUsed": "0xa10",
      "tokenRatio": "0xbb5"
    }
  ],
  "libraries": [],
  "pending": [],
  "returns": {},
  "timestamp": 1767072580641,
  "chain": 5003,
  "commit": "2c35a07"
}