{
  "transactions": [
    {
      "hash": "0xa9313ae6a655f1c90ecd1e4cb765189a9c6a9dd4d300920b96d1482dbdf6fd7f",
      "transactionType": "CALL",
      "contractName": null,
      "contractAddress": "0x6354cb6420cc6854ad874c123b3a084d8601e6a4",
      "function": "enrollRemoteRouter(uint32,bytes32)",
      "arguments": [
        "84532",
        "0x0000000000000000000000006354cb6420cc6854ad874c123b3a084d8601e6a4"
      ],
      "transaction": {
        "from": "0x1234562eb0cd65e7d08e59f9f18d7c10b5df232a",
        "to": "0x6354cb6420cc6854ad874c123b3a084d8601e6a4",
        "gas": "0x206ae8cb",
        "value": "0x0",
        "input": "0xb49c53a70000000000000000000000000000000000000000000000000000000000014a340000000000000000000000006354cb6420cc6854ad874c123b3a084d8601e6a4",
        "nonce": "0x136",
        "chainId": "0x138b"
      },
      "additionalContracts": [],
      "isFixedGasLimit": false
    }
  ],
  "receipts": [
    {
      "status": "0x1",
      "cumulativeGasUsed": "0x149ebf1c",
      "logs": [
        {
          "address": "0x6354cb6420cc6854ad874c123b3a084d8601e6a4",
          "topics": [
            "0x97fd51fef1f80c854cbd0150c248e8b2ac4ecdc97cc05e742b5f61c9f4dc6458",
            "0x0000000000000000000000000000000000000000000000000000000000014a34"
          ],
          "data": "0x0000000000000000000000006354cb6420cc6854ad874c123b3a084d8601e6a4",
          "blockHash": "0x5cef845bd206b8c9354686819f79325288835559fd1ca094d5ad698b058f6ade",
          "blockNumber": "0x1f3f063",
          "blockTimestamp": "0x695363a7",
          "transactionHash": "0xa9313ae6a655f1c90ecd1e4cb765189a9c6a9dd4d300920b96d1482dbdf6fd7f",
          "transactionIndex": "0x1",
          "logIndex": "0x0",
          "removed": false
        }
      ],
      "logsBloom": "0x00000000000200000000000000000000000000000000000000000000000000000000000000002000000000000000000000000000000000000080000000000000000000000000000800000000000000002000000000800000000000000000000000000000000000000000008000000000040400000000000000000000000000000000000000000000000000000000000000000000000000000000000000000000000000000000000000000000000000000000000000000000000000000000000000000000000000000000000000000000000000000000000000000000000000000000000000000000000000000000000000000000000000000000000000000000",
      "type": "0x2",
      "transactionHash": "0xa9313ae6a655f1c90ecd1e4cb765189a9c6a9dd4d300920b96d1482dbdf6fd7f",
      "transactionIndex": "0x1",
      "blockHash": "0x5cef845bd206b8c9354686819f79325288835559fd1ca094d5ad698b058f6ade",
      "blockNumber": "0x1f3f063",
      "gasUsed": "0x149df24f",
      "effectiveGasPrice": "0x1312d01",
      "from": "0x1234562eb0cd65e7d08e59f9f18d7c10b5df232a",
      "to": "0x6354cb6420cc6854ad874c123b3a084d8601e6a4",
      "contractAddress": null,
      "l1Fee": "0xcf54d",
      "l1FeeScalar": "0.01",
      "l1GasPrice": "0xb",
      "l1GasUsed": "0xa10",
      "tokenRatio": "0xbb5"
    }
  ],
  "libraries": [],
  "pending": [],
  "returns": {},
  "timestamp": 1767072681983,
  "chain": 5003,
  "commit": "2c35a07"
}